:020000040000FA
:1000000022EF1BF0C96E120096EF18F0ACA2FED7DB
:10001000AD6E120012001200A9EF05F0D9CFE5FF76
:10002000E1CFD9FF00C0E5FF01C0E5FF02C0E5FF59
:1000300003C0E5FF04C0E5FF05C0E5FF06C0E5FF1E
:1000400007C0E5FF08C0E5FF09C0E5FF0AC0E5FFFE
:100050000BC0E5FF0CC0E5FF0DC0E5FF0EC0E5FFDE
:100060000FC0E5FF10C0E5FF11C0E5FF12C0E5FFBE
:1000700013C0E5FF14C0E5FF15C0E5FF16C0E5FF9E
:1000800017C0E5FF18C0E5FF19C0E5FF1AC0E5FF7E
:100090001BC0E5FF1CC0E5FF1DC0E5FF1EC0E5FF5E
:1000A000020EDBCF00F0030EDBCF01F0040EDBCF3E
:1000B00002F0050EDBCF03F0060EDBCF04F0070ED7
:1000C000DBCF05F0080EDBCF06F0090EDBCF07F023
:1000D0000A0EDBCF08F0096A0A6A02C00DF00D5063
:1000E000800A0DE102500A01AC6F0150AB6F005065
:1000F000AA6F0A0E016EAA0E006E800E026E03C079
:10010000E9FF04C0F3FF055036EC1BF00B6E0B50FB
:10011000D8B4EAEF03F00B50250A02E0CFEF03F06A
:100120000C6A0D6A0E6A0F6A106A0A0E116E126A64
:10013000136A146A200E156E1668176A2B0E186E55
:10014000032AD8B0042AD8B0052A03C0E9FF04C0A6
:10015000F3FF055036EC1BF0196E250A15E1195016
:10016000E56E0250E56E0150E56E0050E56E04EC60
:1001700011F0040EE126092AD8B00A2A032AD8B0C1
:10018000042AD8B0052ABBD71950300A07E1300E2F
:10019000156E032AD8B0042AD8B0052A03C0E9FF97
:1001A00004C0F3FF055036EC1BF02D0A07E1010EE9
:1001B000146E032AD8B0042AD8B0052A03C0E9FF78
:1001C00004C0F3FF055036EC1BF0200A09E1010ED4
:1001D000176E200E186E032AD8B0042AD8B0052A4C
:1001E00003C0E9FF04C0F3FF055036EC1BF02B0AF7
:1001F00007E1010E176E032AD8B0042AD8B0052AE9
:1002000003C0E9FF04C0F3FF055036EC1BF0196E84
:10021000800F4F0F2FE31950800F460F2BE203C0C2
:1002200019F004C01AF005C01BF019C0E9FF1AC08C
:10023000F3FF1B5036EC1BF01C6E800F500F14E3C5
:100240001C50800F460F10E213500A0DF3CF1DF023
:100250001D501C26D00E1C261C50136E192AD8B017
:100260001A2AD8B01B2AE1D719C003F01AC004F02B
:100270001BC005F003C0E9FF04C0F3FF055036ECD6
:100280001BF02E0A31E1032AD8B0042AD8B0052A7F
:10029000166A03C019F004C01AF005C01BF019C09B
:1002A000E9FF1AC0F3FF1B5036EC1BF01C6E800FE9
:1002B000500F14E31C50800F460F10E216500A0D29
:1002C000F3CF1DF01D501C26D00E1C261C50166EA0
:1002D000192AD8B01A2AD8B01B2AE1D719C003F0BE
:1002E0001AC004F01BC005F003C0E9FF04C0F3FF0F
:1002F000055036EC1BF0196E6C0A08E1010E0C6E0D
:10030000032AD8B0042AD8B0052A0AD01950680A9E
:1003100007E1010E0E6E032AD8B0042AD8B0052AD0
:1003200003C0E9FF04C0F3FF055036EC1BF0750A6B
:1003300007E1010E106E032AD8B0042AD8B0052AAE
:1003400003C0E9FF04C0F3FF055036EC1BF0196E43
:10035000730A05E1010E0D6E200E156E41D0195085
:10036000780A03E1100E116E3BD01950580A05E1CE
:10037000100E116E010E126E33D01950630A02E195
:10038000116A2ED019506F0A03E1080E116E28D0A1
:100390001950660A03E1010E0F6E22D01950640A4B
:1003A0001FE01950690A1CE0105005E0FF0E0326FB
:1003B0000422052215D01950E56E0250E56E015059
:1003C000E56E0050E56E04EC11F0040EE126092AFA
:1003D000D8B00A2A032AD8B0042AD8B0052A8FD662
:1003E0000D5021E00650030F0D6E000E0720196E10
:1003F000000E08201A6E0DC006F019C007F01AC0D2
:1004000008F0FD0E0D26FF0E19221A220DC0E9FF7D
:1004100019C0F3FF1A5098EC1AF00D6EF3CF19F0D3
:10042000F4CF1AF008D10F500DE0000E1A6E080E2E
:10043000196E5C0E0D6E040E0626000E07220822B1
:100440001668F9D016680C5023E00650040F0C6EA5
:10045000000E07200F6E000E08201B6E0CC006F069
:100460000FC007F01BC008F0FC0E0C26FF0E0F2279
:100470001B220CC0E9FF0FC0F3FF1B503CEC1AF02D
:100480000C6EF3CF0FF0F4CF1BF0E9CF1CF06AD065
:100490000E5032E00650020F0E6E000E07201D6E49
:1004A000000E08201E6E0EC006F01DC007F01EC014
:1004B00008F0FE0E0E26FF0E1D221E220EC0E9FFC2
:1004C0001DC0F3FF1E50F8EC1AF00E6E0EC00CF0BB
:1004D000E86A0EBEFF0E0F6E1B6E1C6E11500A0AEC
:1004E00003E11050D8B43ED00C500E6E0EC00CF08C
:1004F0000F6A1B6A1C6A36D00650020F0E6E000E81
:1005000007201D6E000E08201E6E0EC006F01DC0D6
:1005100007F01EC008F0FE0E0E26FF0E1D221E2242
:100520000EC0E9FF1DC0F3FF1E50F8EC1AF00E6E6E
:10053000F3CF1DF00EC00CF01DC00FF0E86A1DBE19
:10054000FF0E1B6E1C6E11500A0A02E110500AE0E9
:100550000C500E6E0F501D6E0EC00CF01DC00FF033
:100560001B6A1C6A0A0E196E740E0D6E800E1A6ECE
:100570001150D8B448D010501BE00C500E6E0F50E4
:10058000106E1B501D6E1C501E6E1150E56E0A0E33
:10059000E56E740EE56E1E50E56E1D50E56E105052
:1005A000E56E0E50E56ED6EC09F0070EE12612D08E
:1005B0001150E56E0A0EE56E740EE56E1C50E56E88
:1005C0001B50E56E0F50E56E0C50E56EAFEC13F06E
:1005D000070EE12617502FE00DC0E9FF19C0F3FF09
:1005E0001A5036EC1BF02D0A26E0FF0E0D261922BC
:1005F0001A2218C0E5FF0DC0E9FF19C0F3FF1A5019
:10060000ADEC1BF018D00CC0E5FF0DC0E9FF19C020
:10061000F3FF1A50ADEC1BF00D50010F0C6E000EE5
:1006200019200E6E000E1A20E56A0CC0E9FF0EC0FC
:10063000F3FFADEC1BF00DC00CF019C00EF01AC0AA
:100640000FF013C010F0105011E00CC0E9FF0EC005
:10065000F3FF0F5036EC1BF0176E175007E00C2A13
:10066000D8B00E2AD8B00F2A1006EDD710C013F05C
:1006700014501FE109C00CF00AC00EF010C00FF0BA
:100680000F5011E01550E56E0250E56E0150E56E19
:100690000050E56E04EC11F0040EE1260C2AD8B0EF
:1006A0000E2A0F06EDD70CC009F00EC00AF00FC0DD
:1006B00013F016C00CF00DC00DF019C00EF01AC0EA
:1006C0000FF009C010F00AC015F00DC0E9FF0EC010
:1006D000F3FF0F5036EC1BF0166E1650D8B440D016
:1006E0000CC016F0176A161E171E1650171005E0DC
:1006F0000CC016F00C06165033E00DC0E9FF0EC01A
:10070000F3FF0F5036EC1BF0116E125010E0115039
:10071000E56ECBEC1AF0166EE12A165004E011508B
:10072000166E169A02D01150166E1650116E115098
:10073000E56E0250E56E0150E56E0050E56E04EC8A
:1007400011F0040EE1260D2AD8B00E2AD8B00F2AD7
:10075000102AD8B0152A1350D8B4B7D71306B5D776
:1007600010C009F015C00AF014502DE010C00CF0B4
:1007700015C00DF013C00EF00E5021E0200EE56EF6
:100780000250E56E0150E56E0050E56E04EC11F08C
:10079000040EE1260C2AD8B00D2A0E06EDD70B5018
:1007A000E56E0250E56E0150E56E0050E56E04EC1A
:1007B00011F0040EE126092AD8B00A2A04D00CC090
:1007C00009F00DC00AF0032AD8B0042AD8B0052ACF
:1007D0007FEF00F00AC0F3FF0950E4CF1EF0E4CF32
:1007E0001DF0E4CF1CF0E4CF1BF0E4CF1AF0E4CF0F
:1007F00019F0E4CF18F0E4CF17F0E4CF16F0E4CF0F
:1008000015F0E4CF14F0E4CF13F0E4CF12F0E4CF0E
:1008100011F0E4CF10F0E4CF0FF0E4CF0EF0E4CF0E
:100820000DF0E4CF0CF0E4CF0BF0E4CF0AF0E4CF0E
:1008300009F0E4CF08F0E4CF07F0E4CF06F0E4CF0E
:1008400005F0E4CF04F0E4CF03F0E4CF02F0E4CF0E
:1008500001F0E4CF00F0E4CFD9FF12003C4E4F206E
:10086000464C4F41543E0000D9CFE5FFE1CFD9FFC0
:1008700000C0E5FF01C0E5FF02C0E5FF03C0E5FFE2
:1008800004C0E5FF05C0E5FF06C0E5FF07C0E5FFC2
:1008900008C0E5FF09C0E5FF0AC0E5FF0BC0E5FFA2
:1008A0000CC0E5FF020EDBCF00F0016A0050010A28
:1008B00003E1006A002A01D0006A026A040E025CA9
:1008C000D8B029D10F013339E8441F0B036E046AF5
:1008D000C30E03260A0E042203C0E9FF04C0EAFF88
:1008E000EFCF03F0070E3315046E010E056E000EF8
:1008F000066E045006E0E86CD89005360636010F07
:10090000FCE3076A0350051607500616055006104B
:10091000D8B4FAD0D8900F013335036E230E0324D8
:10092000046E056A0A0E052204C0E9FF05C0EAFF4D
:10093000EECF04F0EFCF05F00050D8B47DD0430ED9
:100940000324066E076A0A0E072206C0E9FF07C0E5
:10095000EAFFEECF06F0EFCF07F00550800FF36E01
:100960000750800FF35C02E10650045C03E2046A66
:10097000056A62D0086A530E03260A0E082203C0D5
:10098000E9FF08C0EAFFEECF03F0EFCF08F0085010
:10099000800FF36E0550800FF35C02E10450035C9E
:1009A00005E2FF0E046E0F0E056E46D00650045C85
:1009B000096E075005580A6EE86A0ABEFF0E0B6EF4
:1009C000E56E0B50E56E0A50E56E0950E56EE56A7E
:1009D000E56A100EE56E000EE56AE1EC07F0096EBF
:1009E000F3CF0AF0F4CF0BF0E9CF0CF0080EE126BC
:1009F0000650035C066E07500858076EE86A07BE8B
:100A0000FF0E036EE56E0350E56E0750E56E06506F
:100A1000E56E0C50E56E0B50E56E0A50E56E095020
:100A2000E56EF4EC0FF0036EF3CF06F0080EE1264E
:100A30000350046E0650056ED8900F013335036ED7
:100A4000066A330E03260A0E062203C0E9FF06C01B
:100A5000EAFFEECF03F0EFCF06F00350045C036E25
:100A600006500558066ED88006AED89004E3061EE0
:100A7000036CD8B4062A0F013051800FF36E065074
:100A8000800FF35C02E103502F5DD8B03DD00050E1
:100A900014E033CF03F00550E56E0450E56EE56ACF
:100AA0000350E56E000EE56E210EE56EC40EE56E98
:100AB00027EC17F0070EE12613D033CF03F00550D3
:100AC000E56E0450E56EE56A0350E56E000EE56ED6
:100AD000210EE56ED00EE56E27EC17F0070EE1262D
:100AE000D8900F013335036E066A330E03260A0EC3
:100AF000062203C0E9FF06C0EAFF04C0EEFF05C0FE
:100B0000EFFF022A02C001F00F01332B080E335D04
:100B1000D8A0D4D6336B0150E4CF0CF0E4CF0BF067
:100B2000E4CF0AF0E4CF09F0E4CF08F0E4CF07F017
:100B3000E4CF06F0E4CF05F0E4CF04F0E4CF03F017
:100B4000E4CF02F0E4CF01F0E4CF00F0E4CFD9FF2E
:100B50001200E8CFE5FFD8CFE5FFE0CFE5FFF3CF08
:100B6000E5FFF4CFE5FFE9CFE5FFEACFE5FFFACFF8
:100B7000E5FFFBCFE5FF00C0E5FF01C0E5FF9DA855
:100B80001ED09EA81CD00A01BB510A01B81905E16C
:100B900080EC1BF00A01B86BECD0BBCA00F00A0174
:100BA000BB2B016A000E00260F0E012200C0E9FFD8
:100BB00001C0EAFFEFCFB4FAB4CAADFFDAD09EAA03
:100BC000D6D0ABA205D00A01B98180EC1BF0D1D000
:100BD000ABA405D00A01B98380EC1BF0CAD0ABA04E
:100BE0003FD0AECFB4FA800E0F012A110A01B4191A
:100BF00004E10A01B989AB96BCD00A01B45104E002
:100C0000B4510F012A1928E10A01B999AB960A01DA
:100C1000B45103E00A01B99702D00A01B987B4CAF6
:100C2000BDFAB6CABEFA0A01B6050A01BF6FBECA4E
:100C300000F0BE2B016A600E0026000E012200C0EB
:100C4000E9FF01C0EAFFB4CAEFFF0A01BE51800A02
:100C500002E10A01BE6B8DD00A01B999AB8689D039
:100C6000AECFB4FA0A01B9A919D0800E0F012A112A
:100C70000A01B41911E18B809D9AAB980A01B85111
:100C800004E1AD6A80EC1BF007D000CFADFF010E90
:100C90000A01BB6F9D886DD0AB866BD00A01B45141
:100CA0000A01BD270A01BE510A01BF191BE10A0151
:100CB000BD510CE1BECAB6FA0A01B9B712D08B8099
:100CC0009D9AAB98AD6A80EC1BF00BD00A01B985F8
:100CD000B9B707D08B809D9AAB98010EAD6E80ECB2
:100CE0001BF047D00A01BE510A01B71907E10A01FA
:100CF000B7510A01B61902E080EC1BF0B6CA00F049
:100D0000016A002AD8B0012AE56A800EE56E01501A
:100D1000E56E0050E56EFEEC11F0006E040EE1266B
:100D200000500A01B56F0A01BE190CE11F0E0A013D
:100D3000B4150A01BF6FBF2BBF2B0A01B6510A01C0
:100D4000BF27BF9FBECA00F00A01BE2B016A600E1A
:100D50000026000E012200C0E9FF01C0EAFFB4CA6C
:100D6000EFFFBE51800A02E10A01BE6B02D0B7EC70
:100D70001BF0E4CF01F0E4CF00F0E4CFFBFFE4CFC1
:100D8000FAFFE4CFEAFFE4CFE9FFE4CFF4FFE4CFDA
:100D9000F3FFE4CFE0FFE4CFD8FFE4CFE8FF10009B
:100DA00000C0E5FF01C0E5FF02C0E5FF03C0E5FFAD
:100DB00004C0E5FF05C0E5FF06C0E5FF07C0E5FF8D
:100DC00008C0E5FF09C0E5FF0AC0E5FFC2B2E2D0F6
:100DD0000F013251D8B49BD0D8900F013135006E3D
:100DE000230E0024016E026A0A0E022201C0E9FFEE
:100DF00002C0EAFFEECF03F0EFCF04F00334066E3B
:100E00000434056E063605360634030B06B0FC09BD
:100E1000066E0550035C056E06500458066EC3CF7F
:100E200007F0086A0750052608500622C4CF07F0CD
:100E300007500A6E096A095005260A50062201C0A9
:100E4000E9FF02C0EAFF05C0EEFF06C0EFFF0F0199
:100E50002E51010A01E059D001C0E9FF02C0EAFFAA
:100E6000EECF03F0EFCF04F0430E0024016E026AD0
:100E70000A0E022201C0E9FF02C0EAFFEECF05F030
:100E8000EFCF06F09C0E0526D8A006060450800F72
:100E9000F36E0650800FF35C02E10550035C0EE236
:100EA0000350640F056E000E0420066E01C0E9FFBA
:100EB00002C0EAFF05C0EEFF06C0EFFF016A530E55
:100EC00000260A0E012200C0E9FF01C0EAFFEECFB2
:100ED00002F0EFCF05F0640E0226D8B0052A0550C7
:100EE000800FF36E0450800FF35C02E10350025C4C
:100EF0000CE29C0E0326D8A0040600C0E9FF01C046
:100F0000EAFF03C0EEFF04C0EFFF0F01326B0F01D9
:100F1000312B080E315D01E3316B0F013139E844AB
:100F20001F0B006E016AC30E00260A0E012200C0CC
:100F3000E9FF01C0EAFFEFCF00F0070E3115016EA7
:100F4000010E026E036A015006E0E86CD89002368A
:100F50000336010FFCE3046A005002160450031626
:100F60000250031017E0800E0F013125006E016A58
:100F70000A0E012200C0E9FF01C0EAFFEFCF00F036
:100F80000044E844FC0B016E0128C26EC282010ECF
:100F90000F01326FE4CF0AF0E4CF09F0E4CF08F09C
:100FA000E4CF07F0E4CF06F0E4CF05F0E4CF04F09F
:100FB000E4CF03F0E4CF02F0E4CF01F0E4CF00F09F
:100FC0001200D9CFE5FFE1CFD9FF00C0E5FF01C096
:100FD000E5FF02C0E5FF03C0E5FF04C0E5FF05C073
:100FE000E5FF06C0E5FF07C0E5FF020EDBCF00F01E
:100FF000030EDBCF01F0040EDBCF02F0050EDBCFDA
:1010000003F0060EDBCF04F0070EDBCF05F0080E71
:10101000DBCF06F0090EDBCF07F000500A01906F1E
:101020000150916F0250926F0350936F04500A0168
:10103000946F0550956F0650966F0750976F0A0191
:1010400090510A019603F3CF00F0F4CF01F0005065
:101050000A019A6F01509B6F0A0190510A01940393
:10106000F3CF00F0F4CF01F000500A01986F015067
:10107000996F0A0193510A019403F3CF00F00A011A
:101080009B51002600509B6F0A0192510A01950363
:10109000F3CF00F00A019B51002600509B6F0A011C
:1010A00092510A019403F3CF00F0F4CF01F00A014A
:1010B0009A5100269B51012200509A6F01509B6F5C
:1010C0000A0191510A019503F3CF00F0F4CF01F02A
:1010D0000A019A5100269B51012200509A6F01503B
:1010E0009B6F0A0191510A019603F3CF00F0005063
:1010F0000A019F6F0A0191510A019403F3CF00F096
:10110000F4CF01F000500A019D6F01509E6F0A015B
:1011100090510A019703F3CF00F000500A01A36F2A
:101120000A0190510A019503F3CF00F0F4CF01F0CA
:1011300000500A01A16F0150A26F0A019C6B0A01C5
:10114000A06B0A019C510A019825006E0A019D516D
:101150000A019921016E0A019E510A019A21026E2B
:101160000A019F510A019B21036E0050986F0150A4
:10117000996F02509A6F03509B6F0A01A0510A01A8
:101180009825006E0A01A1510A019921016E0A01F8
:10119000A2510A019A21026E0A01A3510A019B2160
:1011A000036E03C0E9FF02C0F4FF01C0F3FF00506B
:1011B000E4CF07F0E4CF06F0E4CF05F0E4CF04F08D
:1011C000E4CF03F0E4CF02F0E4CF01F0E4CF00F08D
:1011D000E4CFD9FF120000C0E5FF01C0E5FF02C067
:1011E000E5FF03C0E5FF04C0E5FF05C0E5FF06C05D
:1011F000E5FF07C0E5FF08C0E5FF09C0E5FF0AC03D
:10120000E5FF006A016A040E015CD8B0B7D0630E36
:101210000F013425026E036A0A0E032202C0E9FFA1
:1012200003C0EAFFEFCF02F00250D8B4A0D03439A7
:10123000E8441F0B026EAF0E0224036E046A0A0E0E
:10124000042203C0E9FF04C0EAFFEFCF03F0070E5A
:101250003415046E010E056E000E066E045006E095
:10126000E86CD89005360636010FFCE3076A055096
:10127000031606500716035005E1075003E1036A01
:10128000032A01D0036A0350D880E866D890036A25
:101290000336076AAD0E02260A0E072202C0E9FFD6
:1012A00007C0EAFFEFCF08F008C009F00A6A09504A
:1012B00005160A500616055005E1065003E1056AB9
:1012C000052A01D0056A0550D880E866D890056ADD
:1012D00005360350051801E14AD0035012E0010E13
:1012E000056E045005E0E86CD8900536010FFDE36B
:1012F0000550081202C0E9FF07C0EAFF08C0EFFF6F
:1013000017D002C0E9FF07C0EAFFEFCF05F0010EDA
:10131000066E045005E0E86CD8900636010FFDE338
:10132000061C051602C0E9FF07C0EAFF05C0EFFF73
:10133000035003E1036A032A01D0036A026A03BE71
:10134000026834CF04F00250E56E0350E56EE56AA2
:101350000450E56E000EE56E2C0EE56EAC0EE56EEB
:1013600027EC17F0070EE126012A01C000F00F015B
:10137000342B100E345DD8A046D7346B0050E4CF28
:101380000AF0E4CF09F0E4CF08F0E4CF07F0E4CFAF
:1013900006F0E4CF05F0E4CF04F0E4CF03F0E4CFAF
:1013A00002F0E4CF01F0E4CF00F01200D9CFE5FF66
:1013B000E1CFD9FF00C0E5FF01C0E5FF02C0E5FFB6
:1013C00003C0E5FF04C0E5FF05C0E5FF06C0E5FF7B
:1013D00007C0E5FF08C0E5FF09C0E5FF0AC0E5FF5B
:1013E0000BC0E5FF0CC0E5FF0DC0E5FF0EC0E5FF3B
:1013F0000FC0E5FF020EDBCF00F0030EDBCF01F0E4
:10140000040EDBCF02F0050EDBCF03F0060EDBCFC0
:1014100004F0070EDBCF05F0080EDBCF06F0200E40
:10142000076E086A06C009F00A6A0B6A0C6AE56A68
:10143000E56AE56A0950E56E0350E56E0250E56E17
:101440000150E56E0050E56ED4EC0EF00D6E080E06
:10145000E126300E0D263A0E0D5C06E30D500E6EA1
:10146000270E0E260E500D6EFF0E0726D8A008067A
:10147000E00E07240E6E000E08200F6E0EC0E9FF6E
:101480000FC0EAFF0DC0EFFF0C50E56E0B50E56E8C
:101490000A50E56E0950E56E0350E56E0250E56EA8
:1014A0000150E56E0050E56EF4EC0FF0006EF3CFE6
:1014B00001F0F4CF02F0E9CF03F0080EE12600506E
:1014C000011002100310D8A4ADD707C000F008C067
:1014D00001F004C002F005C003F000C004F001C038
:1014E00005F0002AD8B0012AE00E0426000E0522DD
:1014F00004C0E9FF05C0EAFFEFCF04F002C0E9FF36
:1015000003C0EAFF04C0EFFF022AD8B0032A000E8E
:10151000015C02E1200E005CE0E302C0E9FF03C0D1
:10152000EAFF000EEF6AE4CF0FF0E4CF0EF0E4CF55
:101530000DF0E4CF0CF0E4CF0BF0E4CF0AF0E4CFF1
:1015400009F0E4CF08F0E4CF07F0E4CF06F0E4CFF1
:1015500005F0E4CF04F0E4CF03F0E4CF02F0E4CFF1
:1015600001F0E4CF00F0E4CFD9FF120000C0E5FFA6
:1015700001C0E5FF02C0E5FF03C0E5FF04C0E5FFD1
:10158000ACA2B1D05CEC1AF0006E005005E10F0186
:10159000286B0F01276BA7D028CF01F00050012640
:1015A0005CEC1AF0026E00060250230A1FE1010EE5
:1015B000005CD8A096D05CEC1AF0026E690A03E1D8
:1015C00020EC18F08ED00250720A03E180EC1BF080
:1015D00088D00250730A01E084D08B90AB869D8A3C
:1015E0009D98AE50AE50AB98AB887BD00250430A6A
:1015F00003E1010E036E06D00250420A01E071D0F1
:10160000036A02D0008E02D0D890003200C0BAFA2D
:1016100000500F01006F010E0A01BB6F0F0128512E
:10162000011801E147D05CEC1AF0026E035030E182
:101630000250006ED00E00260050026E0A0E025CB0
:1016400006E30250006EF90E00260050026E0F01F4
:101650002851011801E145D05CEC1AF0006E046ECF
:10166000D00E04260450006E0A0E005C06E3005003
:10167000046EF90E04260450006E100E025C31E276
:10168000100E005C2EE20238F00B026E00500226B3
:1016900002500A01BA27000E0A01BB25006E046A37
:1016A0000F0E042200C0E9FF04C0EAFF02C0EFFFF2
:1016B000BB2BB4D7000E0A01BB25006E026A0F0EC9
:1016C00002220A01BA1D036E032A00C0E9FF02C00C
:1016D000EAFF03C0EFFF0A01BB2BBBCAB8FA0A013D
:1016E000B26B01C028FFE4CF04F0E4CF03F0E4CFF5
:1016F00002F0E4CF01F0E4CF00F01200D9CFE5FF13
:10170000E1CFD9FF00C0E5FF01C0E5FF02C0E5FF62
:1017100003C0E5FF04C0E5FF05C0E5FF06C0E5FF27
:1017200007C0E5FF08C0E5FF09C0E5FF0AC0E5FF07
:101730000BC0E5FF0CC0E5FF020EDBCF00F0030E8F
:10174000DBCF01F0040EDBCF02F0050EDBCF03F0A0
:10175000060EDBCF04F00150056E0250066E920EAD
:10176000076E0F0E086E05500726065008220F0E52
:101770000A6E800E075E0A50085A920E096E0F0E0E
:101780000A6E0550092606500A220F0E0C6E800EB6
:10179000095E0C500A5A09C0E9FF0AC0EAFFEFCF00
:1017A00009F0010E0A6E045005E0E86CD8900A3684
:1017B000010FFDE30A50091207C0E9FF08C0EAFF64
:1017C00009C0EFFF380E076E0F0E086E0550072692
:1017D000065008220F0E0B6E800E075E0B50085A43
:1017E0000F0E0B6E380E05260B5006220F0E0B6ED9
:1017F000800E055E0B50065A05C0E9FF06C0EAFFE1
:10180000EFCF05F00A1E0A50051607C0E9FF08C011
:10181000EAFF05C0EFFF056A630E00260A0E0522E7
:10182000800E015E070E01160138F00B026E070EE6
:1018300004160450022600C0E9FF05C0EAFF02C0FA
:10184000EFFFE4CF0CF0E4CF0BF0E4CF0AF0E4CFED
:1018500009F0E4CF08F0E4CF07F0E4CF06F0E4CFDE
:1018600005F0E4CF04F0E4CF03F0E4CF02F0E4CFDE
:1018700001F0E4CF00F0E4CFD9FF120080EC10F0CB
:1018800013EC16F00F0125A108D00C0EE56E000E2A
:10189000E56AD2EC14F0020EE1260F0125A30ED06A
:1018A000010EE56E800EE56E0F0EE56E810EE56EA3
:1018B000000EE56A7EEC0BF0050EE1260F0125A572
:1018C0000ED0020EE56E800EE56E0F0EE56E810EF7
:1018D000E56E010EE56E7EEC0BF0050EE1260F01C4
:1018E00025A70ED0030EE56E800EE56E0F0EE56E99
:1018F000810EE56E020EE56E7EEC0BF0050EE12624
:101900000F0125A90ED0040EE56E800EE56E0F0EB8
:10191000E56E810EE56E030EE56E7EEC0BF0050EB6
:10192000E1260F0125AB0ED0050EE56E800EE56EAB
:101930000F0EE56E810EE56E040EE56E7EEC0BF08B
:10194000050EE1260F0125AD0ED0060EE56E800EC8
:10195000E56E0F0EE56E810EE56E050EE56E7EEC12
:101960000BF0050EE1260F0125AF0ED0070EE56E38
:10197000800EE56E0F0EE56E810EE56E060EE56ECD
:101980007EEC0BF0050EE1260F0126A10DD0E56AD5
:10199000800EE56E0F0EE56E800EE56E070EE56EAD
:1019A0007EEC0BF0050EE1260F0126A30ED0010EF2
:1019B000E56E800EE56E0F0EE56E800EE56E080E8C
:1019C000E56E7EEC0BF0050EE1260F0126A50ED08C
:1019D000020EE56E800EE56E0F0EE56E800EE56E72
:1019E000090EE56E7EEC0BF0050EE126120000C03C
:1019F000E5FF01C0E5FF02C0E5FF03C0E5FF04C04D
:101A0000E5FF05C0E5FF006A100E005CD8B089D084
:101A1000630E0024016E026A0A0E022201C0E9FF71
:101A200002C0EAFFEFCF01F00150D8B478D00138FE
:101A30000F0B026E036A800E02260F0E032202C0F5
:101A4000E9FF03C0EAFFEFCF02F0070E0116010E17
:101A5000036E000E046E015006E0E86CD890033669
:101A60000436010FFCE3056A025003160550041604
:101A7000035005E1045003E1036A032A01D0036A1D
:101A80000350D880E866D890036A0336035024E0F8
:101A90000038E8441F0B016E026AAF0E01260A0EE1
:101AA000022201C0E9FF02C0EAFFEFCF03F0070EF8
:101AB0000014046E010E056E045005E0E86CD89029
:101AC0000536010FFDE30550031201C0E9FF02C016
:101AD000EAFF03C0EFFF23D00038E8441F0B016E7C
:101AE000026AAF0E01260A0E022201C0E9FF02C0FF
:101AF000EAFFEFCF03F0070E0014046E010E056E2F
:101B0000045005E0E86CD8900536010FFDE3051C94
:101B1000031601C0E9FF02C0EAFF03C0EFFF002A7D
:101B200073D7E4CF05F0E4CF04F0E4CF03F0E4CFC3
:101B300002F0E4CF01F0E4CF00F01200800EE56E79
:101B40000A0EE56E530EE56E77EC15F0030EE126F6
:101B5000800EE56E0A0EE56E550EE56E77EC15F01B
:101B6000030EE126800EE56E0A0EE56E570EE56E59
:101B700077EC15F0030EE126800EE56E0A0EE56E99
:101B8000590EE56E77EC15F0030EE126800EE56E3A
:101B90000A0EE56E5B0EE56E77EC15F0030EE1269E
:101BA000800EE56E0A0EE56E5D0EE56E77EC15F0C3
:101BB000030EE126800EE56E0A0EE56E5F0EE56E01
:101BC00077EC15F0030EE126800EE56E0A0EE56E49
:101BD000610EE56E77EC15F0030EE126800EE56EE2
:101BE0000A0EE56E430EE56E77EC15F0030EE12666
:101BF000800EE56E0A0EE56E450EE56E77EC15F08B
:101C0000030EE126800EE56E0A0EE56E470EE56EC8
:101C100077EC15F0030EE126800EE56E0A0EE56EF8
:101C2000490EE56E77EC15F0030EE126800EE56EA9
:101C30000A0EE56E4B0EE56E77EC15F0030EE1260D
:101C4000800EE56E0A0EE56E4D0EE56E77EC15F032
:101C5000030EE126800EE56E0A0EE56E4F0EE56E70
:101C600077EC15F0030EE126800EE56E0A0EE56EA8
:101C7000510EE56E77EC15F0030EE126120000C060
:101C8000E5FF01C0E5FF02C0E5FF03C0E5FF04C0BA
:101C9000E5FF0A01B7510A01B61901E163D0B7CADD
:101CA00000F0002A009E600E0024016E026A000E01
:101CB000022201C0E9FF02C0EAFFEFCFC1FA1F0E06
:101CC0000A01C117B7CAC0FAC1510A01C027C02B07
:101CD000C02BC09F65EC19F0016E015003E1016A51
:101CE000012A01D0016A65EC19F00A01C16F800E6A
:101CF000C115026E1F0EC115036E03C004F003C0B0
:101D0000C1FA045003E1B6CAB7FA43D0015021E04A
:101D100002501CE065EC19F0006E0A01C10700508A
:101D2000420A03E10BEC00F01BD000504E0A03E125
:101D30005CEC16F015D00050460A03E198EC1BF05D
:101D40000FD00050490A0CE1FF000AD00AEC00F065
:101D500007D0025003E013EC14F002D029EC15F088
:101D6000C0CAB7FA0F0127510F01281906E00A016E
:101D7000B85103E1B6EC0AF00CD0006A8BB0002A2F
:101D80000050010A06E10A01B85103E1ACB280EC4F
:101D90001BF0E4CF04F0E4CF03F0E4CF02F0E4CF93
:101DA00001F0E4CF00F01200D9CFE5FFE1CFD9FF79
:101DB00000C0E5FF01C0E5FF02C0E5FF03C0E5FF8D
:101DC00004C0E5FF05C0E5FF06C0E5FF07C0E5FF6D
:101DD00008C0E5FF09C0E5FF0AC0E5FF020EDBCF42
:101DE00000F0030EDBCF01F0040EDBCF02F0050E96
:101DF000DBCF03F0060EDBCF04F0070EDBCF05F0E0
:101E0000080EDBCF06F0090EDBCF07F0086A096A7F
:101E10000750800BE8440A6E0A501BE10450042668
:101E20000536063607360750035C08E10650025CAB
:101E300005E10550015C02E10450005C06E2D89027
:101E4000073206320532043204D0092A09C008F0EC
:101E5000DFD70750035C08E10650025C05E105503E
:101E6000015C02E10450005C08E30450005E055090
:101E7000015A0650025A0750035AD89007320632C8
:101E80000532043208C009F008060950E2E103C037
:101E9000E9FF02C0F4FF01C0F3FF0050E4CF0AF0F5
:101EA000E4CF09F0E4CF08F0E4CF07F0E4CF06F088
:101EB000E4CF05F0E4CF04F0E4CF03F0E4CF02F088
:101EC000E4CF01F0E4CF00F0E4CFD9FF120000C06E
:101ED000E5FF01C0E5FF03C0E5FF04C0E5FF05C065
:101EE000E5FF06C0E5FF07C0E5FF08C0E5FF09C044
:101EF000E5FF0AC0E5FF0BC0E5FF36CF00F037CFA6
:101F000001F00F01362B01E3372B0050E56E57EC43
:101F10001BF0E12A076E046A056A066A36CF00F0F4
:101F200037CF01F00F01362B01E3372B0050E56E60
:101F300057EC1BF0E12A0B6A0A6E086A085004127B
:101F400005120A5006120B50071236CF00F037CF99
:101F500001F00F01362B01E3372B0050E56E57ECF3
:101F60001BF0E12A036E006A03C001F0E86A03BEB9
:101F7000FF0E086E096E0050041201500512085041
:101F800006120950071236CF00F037CF01F00F01CB
:101F9000362B01E3372B0050E56E57EC1BF0E12A9E
:101FA000016A0412015005120612071207C0E9FF68
:101FB00006C0F4FF05C0F3FF0450E4CF0BF0E4CFFC
:101FC0000AF0E4CF09F0E4CF08F0E4CF07F0E4CF63
:101FD00006F0E4CF05F0E4CF04F0E4CF03F0E4CF63
:101FE00001F0E4CF00F01200D9CFE5FFE1CFD9FF37
:101FF00000C0E5FF01C0E5FF02C0E5FF03C0E5FF4B
:1020000004C0E5FF05C0E5FF06C0E5FF07C0E5FF2A
:1020100008C0E5FF09C0E5FF0AC0E5FF0BC0E5FF0A
:102020000CC0E5FF0DC0E5FF020EDBCF00F0030E94
:10203000DBCF01F0040EDBCF02F0050EDBCF03F0A7
:10204000060EDBCF04F0070EDBCF05F0080EDBCF6A
:1020500006F0090EDBCF07F0086A096A0A6A0B6A04
:10206000200E0C6E0350800BE8440D6E00500026CD
:102070000136023603360850082609360A360B3672
:102080000D50D8A4088007500B5C08E106500A5C8C
:1020900005E10550095C02E10450085C09E30450C5
:1020A000085E0550095A06500A5A07500B5A00801C
:1020B0000C2ED8D703C0E9FF02C0F4FF01C0F3FF24
:1020C0000050E4CF0DF0E4CF0CF0E4CF0BF0E4CF00
:1020D0000AF0E4CF09F0E4CF08F0E4CF07F0E4CF52
:1020E00006F0E4CF05F0E4CF04F0E4CF03F0E4CF52
:1020F00002F0E4CF01F0E4CF00F0E4CFD9FF12000A
:1021000000C0E5FF01C0E5FF02C0E5FF03C0E5FF39
:10211000006A010E005C0DE2C30E0024016E026A2B
:102120000A0E022201C0E9FF02C0EAFFEF6A002A9C
:10213000F0D7006A016A080E005C35E2230E012424
:10214000026E036A0A0E032202C0E9FF03C0EAFF1F
:10215000EE6AEF6A330E0124026E036A0A0E03224E
:1021600002C0E9FF03C0EAFFEE6AEF6A430E0124F2
:10217000026E036A0A0E032202C0E9FF03C0EAFFEF
:10218000EE6AEF6A530E0124026E036A0A0E0322FE
:1021900002C0E9FF03C0EAFFEE687F0EEF6E012A7E
:1021A000012A002AC8D7AF0EC06EC16A010EC26EE6
:1021B000C282E4CF03F0E4CF02F0E4CF01F0E4CF39
:1021C00000F012004320412025642025640A00000D
:1021D0004320612025642025640A000043206173A8
:1021E0006D20256420256420256420256420256435
:1021F0000A00432061734D20256420256420256456
:102200002025642025640A00D9CFE5FFE1CFD9FF5E
:1022100000C0E5FF01C0E5FF02C0E5FF03C0E5FF28
:1022200004C0E5FF05C0E5FF06C0E5FF07C0E5FF08
:10223000020EDBCF00F0030EDBCF01F0040EDBCF8C
:1022400002F0050EDBCF03F002C006F00650046E6C
:10225000800A28E100C0E9FF01C0F3FF025098ECBA
:102260001AF0056EF3CF06F0F4CF07F003C0E5FFD8
:1022700005C0E9FF06C0F3FF0750ADEC1BF0052ACF
:10228000D8B0062AD8B0072A05C0E5FF06C0F4FF7B
:1022900007C0F6FF00C0E9FF01C0F3FF025065EC84
:1022A0001BF01ED004AA1CD0200E041A045004E116
:1022B000035006EC00F014D00450010A04E103506E
:1022C00002EC00F00DD004500F0A04E10350D0ECF2
:1022D00018F006D004500E0A03E10350D0EC1BF0B6
:1022E000E4CF07F0E4CF06F0E4CF05F0E4CF04F04C
:1022F000E4CF03F0E4CF02F0E4CF01F0E4CF00F04C
:10230000E4CFD9FF1200D9CFE5FFE1CFD9FF00C05C
:10231000E5FF01C0E5FF02C0E5FF03C0E5FF04C023
:10232000E5FF05C0E5FF06C0E5FF07C0E5FF020EBB
:10233000DBCF00F0030EDBCF01F0040EDBCF02F0A9
:10234000050EDBCF03F028CF29FF0F0127510F0126
:10235000295F290703C004F0056A030E0426D8B0DC
:10236000052A29CF06F0076A0750800FF36E055043
:10237000800FF35C02E10450065C02E2E8682BD0B7
:10238000020E035C02E2E86A26D003060350E56E03
:10239000E3EC17F0E12A046A0350045C14E20450F1
:1023A0000024056EE86A0120066EE86A022005C076
:1023B000E9FF06C0F3FF36EC1BF0042AE56EE3EC00
:1023C00017F0E12AE9D728CF29FF0F0127510F0184
:1023D000295F2907E86AE4CF07F0E4CF06F0E4CFED
:1023E00005F0E4CF04F0E4CF03F0E4CF02F0E4CF53
:1023F00001F0E4CF00F0E4CFD9FF1200D9CFE5FF20
:10240000E1CFD9FF00C0E5FF01C0E5FF02C0E5FF55
:1024100003C0E5FF04C0E5FF05C0E5FF06C0E5FF1A
:10242000020EDBCF00F0030EDBCF01F0040EDBCF9A
:1024300002F0050EDBCF03F0D88001AED890046A1D
:102440000436045007E0011C066E001C056E054AA8
:10245000062A04D000C005F001C006F00550006E49
:102460000650016ED88003AED89007E3031C066EB9
:10247000021C056E054A062A04D002C005F003C0FE
:1024800006F00650E56E0550E56E0150E56E005011
:10249000E56E75EC14F0006EF3CF01F0040EE1264A
:1024A00004500AE0011C036E001C026E024A032A5B
:1024B00003C0F3FF025003D001C0F3FF0050E4CF8C
:1024C00006F0E4CF05F0E4CF04F0E4CF03F0E4CF6E
:1024D00002F0E4CF01F0E4CF00F0E4CFD9FF120026
:1024E000D9CFE5FFE1CFD9FF00C0E5FF01C0E5FF8F
:1024F00002C0E5FF03C0E5FF04C0E5FF05C0E5FF3E
:10250000020EDBCF00F0030EDBCF01F0040EDBCFB9
:1025100002F0050EDBCF03F036CF04F037CF05F025
:102520000F01362B01E3372B0350E56E0450E56EA7
:102530008FEC19F0020EE12636CF04F037CF05F00C
:102540000F01362B01E3372B0250056EE56E045068
:10255000E56E8FEC19F0020EE12636CF04F037CF8E
:1025600005F00F01362B01E3372B0150056EE56EA8
:102570000450E56E8FEC19F0020EE12636CF04F020
:1025800037CF05F00F01362B01E3372B0050E56EF6
:102590000450E56E8FEC19F0020EE126E4CF05F051
:1025A000E4CF04F0E4CF03F0E4CF02F0E4CF01F095
:1025B000E4CF00F0E4CFD9FF12000F01389120ECF6
:1025C00018F080EC10F013EC16F00A01C26B0EEC60
:1025D0001BF03EEC0CF023CFB1FA3BEC19F0006E8F
:1025E000F3CF01F0F4CF02F0E9CF03F03FEC0EF0AF
:1025F000D0EC06F0F7EC0CF03BEC19F0046EF3CFE6
:1026000005F0F4CF06F0E9CF07F00050045E01506A
:10261000055A0250065A0350075A079E000E075CDF
:1026200008E1000E065C05E1130E055C02E1890E6F
:10263000045CDCE33BEC19F0006EF3CF01F0F4CF67
:1026400002F0E9CF03F0EBEC08F0046E045005E172
:10265000000EE56A34EC04F0E12AB1CA04F00A0184
:10266000B1070450D8A4C2D723CFB1FA0F01242B4D
:1026700024CF04F0E56A0450E56E000EE56E370ED7
:10268000E56E700EE56E27EC17F0050EE126AED76D
:102690001200D9CFE5FFE1CFD9FF00C0E5FF01C0AF
:1026A000E5FF02C0E5FF03C0E5FF04C0E5FF05C08C
:1026B000E5FF06C0E5FF020EDBCF00F0030EDBCF27
:1026C00001F0040EDBCF02F00A01C25119E167EC00
:1026D0000FF0036EF3CF04F0F4CF05F0E9CF06F06E
:1026E00003C0E5FF04C0F4FF05C0F6FF06C0F7FF16
:1026F00000C0E9FF01C0F3FF025047EC1BF01ED001
:102700000A01C251010A1AE100C0E9FF01C0F3FF4A
:1027100002503CEC1AF0006EF3CF01F0F4CF02F05F
:10272000E9CF03F00350E56E0250E56E0150E56E0F
:102730000050E56E70EC12F0040EE126E4CF06F0D6
:10274000E4CF05F0E4CF04F0E4CF03F0E4CF02F0EF
:10275000E4CF01F0E4CF00F0E4CFD9FF1200D9CFED
:10276000E5FFE1CFD9FF00C0E5FF01C0E5FF02C0F2
:10277000E5FF03C0E5FF04C0E5FF05C0E5FF06C0B7
:10278000E5FF020EDBCF00F0030EDBCF01F0040EFD
:10279000DBCF02F0050EDBCF03F0060EDBCF04F03B
:1027A000070EDBCF05F0080EDBCF06F0D88003AEB6
:1027B000D89016E306500A0A13E104C0E9FF05C0E9
:1027C000EAFF2D0EEF6E042AD8B0052A031E021E62
:1027D000011E006C05E1012A03E1022AD8B4032A94
:1027E0000650E56E0550E56E0450E56E0350E56E4B
:1027F0000250E56E0150E56E0050E56ED6EC09F032
:10280000070EE126E4CF06F0E4CF05F0E4CF04F0B4
:10281000E4CF03F0E4CF02F0E4CF01F0E4CF00F026
:10282000E4CFD9FF120000C0E5FF01C0E5FF65EC71
:1028300019F0006E450A24E1000EE56E370EE56ED4
:102840007A0EE56E27EC17F0030EE126010E016EFD
:102850000A01C151015C10E265EC19F0E56AE56E10
:10286000000EE56E370EE56E7C0EE56E27EC17F078
:10287000050EE126012AECD70A0ED0EC18F030D074
:102880000050530A1EE165EC19F0016ED00E0126CE
:102890000150006E016A005001E1012A0150D88008
:1028A000E866D890016A01360150E56EA2EC16F098
:1028B000E12A005015E1010E0A01C26F0EEC1BF077
:1028C0000FD00050570A0CE165EC19F0016ED00EE4
:1028D0000126015005E1010E0A01C26F0EEC1BF04A
:1028E000E4CF01F0E4CF00F01200D9CFE5FFE1CF53
:1028F000D9FF00C0E5FF01C0E5FF02C0E5FF03C04E
:10290000E5FF04C0E5FF05C0E5FF06C0E5FF020ED8
:10291000DBCF00F0030EDBCF01F0040EDBCF02F0C3
:10292000050EDBCF03F0046A056A0350800BE84410
:10293000066E065011E10250022603360350015C78
:1029400002E10250005C04E2D8900332023204D06B
:10295000052A05C004F0E9D70350015C02E10250EA
:10296000005C04E30250005E0350015AD890033229
:10297000023204C005F004060550EEE101C0F3FF89
:102980000050E4CF06F0E4CF05F0E4CF04F0E4CF4C
:1029900003F0E4CF02F0E4CF01F0E4CF00F0E4CFA5
:1029A000D9FF1200D9CFE5FFE1CFD9FF00C0E5FF85
:1029B00001C0E5FF02C0E5FF03C0E5FF04C0E5FF7D
:1029C00005C0E5FF06C0E5FF020EDBCF00F0030EF9
:1029D000DBCF01F00038E8441F0B026E036AC30E20
:1029E00002260A0E032202C0E9FF03C0EAFFEFCF6E
:1029F00004F0070E0014056E010E066E055005E08A
:102A0000E86CD8900636010FFDE30650041202C0B0
:102A1000E9FF03C0EAFF04C0EFFF026A800E002650
:102A20000A0E022200C0E9FF02C0EAFF01C0EFFF68
:102A3000E4CF06F0E4CF05F0E4CF04F0E4CF03F0F8
:102A4000E4CF02F0E4CF01F0E4CF00F0E4CFD9FF0F
:102A5000120000C0E5FF01C0E5FF65EC19F0006E53
:102A6000010E005CD8A03ED0040E005CD8B03AD075
:102A7000000604C0E5FF05C0E5FF056A0034053621
:102A8000E8340536FC0B046E000EFB6E2A0EFA6E5F
:102A9000A80E04260550FA22D8B0FB2A0450E4CF31
:102AA00005F0E4CF04F0F96E5AEF15F05FEF15F082
:102AB00064EF15F065EC19F00F01246F13D065EC8D
:102AC00019F00F01236F0ED065EC19F00F01256B83
:102AD000266F65EC19F0016A0F01252701502623A6
:102AE0003EEC0CF0E4CF01F0E4CF00F01200D9CFBF
:102AF000E5FFE1CFD9FF00C0E5FF01C0E5FF02C05F
:102B0000E5FF03C0E5FF04C0E5FF020EDBCF00F0E8
:102B1000030EDBCF01F0040EDBCF02F00A01C2513D
:102B200011E107EC19F0036EF3CF04F003C0E5FFE9
:102B300004C0F4FF00C0E9FF01C0F3FF02508CECB9
:102B40001BF016D00A01C251010A12E100C0E9FFD0
:102B500001C0F3FF0250F8EC1AF0006EF3CF01F061
:102B60000150E56E0050E56EA6EC17F0020EE1266E
:102B7000E4CF04F0E4CF03F0E4CF02F0E4CF01F0BF
:102B8000E4CF00F0E4CFD9FF1200800EF66E370ECE
:102B9000F76E000EF86E0900F550056E0900F5504D
:102BA000066E04E1056702D012EF16F00900F55039
:102BB000006E0900F550016E0900F550026E090023
:102BC0000900F550E96E0900F550EA6E09000900A8
:102BD0000900F550036E0900F550046E0900090064
:102BE000F6CF07F0F7CF08F0F8CF09F000C0F6FFF6
:102BF00001C0F7FF02C0F8FF035002E1045007E0F4
:102C00000900F550EE6E0306F8E20406F9D707C096
:102C1000F6FF08C0F7FF09C0F8FF050601E2060647
:102C2000D1EF15F0120000C0E5FF01C0E5FF02C0C2
:102C3000E5FF03C0E5FF04C0E5FF006A020E005C8B
:102C400019E2AD0E0024016E026A0A0E0222AF0ED6
:102C50000024036E046A0A0E042203C0E9FF04C0C4
:102C6000EAFF010EEF6E01C0E9FF02C0EAFFEF6E5E
:102C7000002AE4D7006A100E005C0DE2630E002407
:102C8000016E026A0A0E022201C0E9FF02C0EAFFD9
:102C9000EF6A002AF0D7E4CF04F0E4CF03F0E4CFEA
:102CA00002F0E4CF01F0E4CF00F0120043207320E3
:102CB00025642025640A000000C0E5FF01C0E5FF8F
:102CC00002C0E5FF65EC19F0006E65EC19F0016ECD
:102CD0000050026ED00E02260250006E0A0E005CFA
:102CE00006E30050026EF90E02260250006E0150FB
:102CF000026ED00E02260250016E0A0E015C06E33F
:102D00000150026EF90E02260250016E080E005CA0
:102D100012E2100E015CD8B00ED00038F00B012486
:102D2000006E5CEC18F0016E015005E10050E56E9C
:102D3000B3EC1AF0E12AE4CF02F0E4CF01F0E4CFE3
:102D400000F01200D9CFE5FFE1CFD9FF00C0E5FFC9
:102D500001C0E5FF02C0E5FF03C0E5FF04C0E5FFD9
:102D6000020EDBCF00F00050010A22E1016A026A84
:102D7000080E015C1DE2430E0224036E046A0A0E73
:102D8000042203C0E9FF04C0EAFFEE687F0EEF6E85
:102D9000530E0224036E046A0A0E042203C0E9FFE4
:102DA00004C0EAFFEE6AEF6A022A022A012AE0D78B
:102DB00000C02EFFE4CF04F0E4CF03F0E4CF02F034
:102DC000E4CF01F0E4CF00F0E4CFD9FF1200D9CF77
:102DD000E5FFE1CFD9FF00C0E5FF01C0E5FF02C07C
:102DE000E5FF03C0E5FF04C0E5FF020EDBCF00F006
:102DF0000038E8441F0B016E026AC30E01260A0E5A
:102E0000022201C0E9FF02C0EAFFEFCF03F0070E84
:102E10000016010E046E005005E0E86CD8900436F0
:102E2000010FFDE3041C031601C0E9FF02C0EAFF25
:102E300003C0EFFFE4CF04F0E4CF03F0E4CF02F0EF
:102E4000E4CF01F0E4CF00F0E4CFD9FF1200D9CFF6
:102E5000E5FFE1CFD9FF00C0E5FF01C0E5FF02C0FB
:102E6000E5FF020ED924006E000EDA20016E800EFE
:102E7000026E030E0026000E012202220250E56EB1
:102E80000150E56E0050E56E040EDBCFE5FF030E4A
:102E9000DBCFE5FF020EDBCFE5FF0A01A651E56EB1
:102EA000A551E56EA451E56E0EEC00F0006EF3CF77
:102EB00001F0090EE12601C0F3FF0050E4CF02F05B
:102EC000E4CF01F0E4CF00F0E4CFD9FF1200D9CF76
:102ED000E5FFE1CFD9FF00C0E5FF01C0E5FF02C07B
:102EE000E5FF03C0E5FF020EDBCF00F0030EDBCFF2
:102EF00001F0040EDBCF02F00A01C2510DE1E2EC59
:102F00001AF0036E03C0E5FF00C0E9FF01C0F3FF44
:102F10000250ADEC1BF00FD00A01C251010A0BE1C7
:102F200000C0E9FF01C0F3FF025036EC1BF0E56E74
:102F3000B6EC19F0E12AE4CF03F0E4CF02F0E4CFDD
:102F400001F0E4CF00F0E4CFD9FF1200D9CFE5FFC4
:102F5000E1CFD9FF00C0E5FF01C0E5FF02C0E5FFFA
:102F600003C0E5FF020EDBCF00F0030EDBCF01F064
:102F700036CF02F037CF03F00F01362B01E3372BAA
:102F80000150E56E0250E56E8FEC19F0020EE1265D
:102F900036CF02F037CF03F00F01362B01E3372B8A
:102FA0000050E56E0250E56E8FEC19F0020EE1263E
:102FB000E4CF03F0E4CF02F0E4CF01F0E4CF00F07F
:102FC000E4CFD9FF1200D9CFE5FFE1CFD9FF00C090
:102FD000E5FF01C0E5FF02C0E5FF03C0E5FF04C057
:102FE000E5FF020EDBCF00F027CF01F0026A012AD5
:102FF000D8B0022A28CF03F0046A0150031803E175
:103000000250041801E001D00ED0000E0F01272558
:10301000016E026A070E022201C0E9FF02C0EAFF48
:1030200000C0EFFF272BE4CF04F0E4CF03F0E4CFA0
:1030300002F0E4CF01F0E4CF00F0E4CFD9FF1200BA
:10304000C7EC1BF00F01276B0F01286B0F012969DB
:103050008B909490B06A3F0EAF6EB886AC8AAC8409
:10306000AC8CAC90AB8CAB8ED58ED59CD59AD588DC
:10307000D596D594D582D580F28AF1840A01B96BB0
:103080000A01B36B0A01B66B0A01B76B0A01B86B90
:10309000000EE56A57EC1BF00F012A6FE12AD08E73
:1030A0009F989F9A0A01A46BA56B2F0EA66F80ECC8
:1030B0001BF0F28EF28C120000C0E5FF01C0E5FFAC
:1030C00002C0E5FF010E006E65EC19F0016E01C053
:1030D00002F0015023E00050E56E57EC1BF0016E4A
:1030E000E12A015010E10A0E005C0BE20A0E006EAC
:1030F000E56E57EC1BF0016EE12A015004E1E8682F
:103100000ED0E8680CD00150021802E0E86807D041
:10311000002A1B0E005CD8E3E86801D0E86AE4CF1F
:1031200002F0E4CF01F0E4CF00F01200F3CFE5FFAE
:10313000F4CFE5FFE9CFE5FFEACFE5FFFACFE5FF02
:10314000FBCFE5FF0F012B510A018A6F0F012C51B4
:103150000A018B6FD650886FD750896FF2A411D0B7
:103160000F012B2B01E32C2BF2940F012B510A01A1
:103170008A6F0F012C510A018B6FD650886FD75080
:10318000896FD3EC1BF0E4CFFBFFE4CFFAFFE4CF71
:10319000EAFFE4CFE9FFE4CFF4FFE4CFF3FF11004F
:1031A00000C0E5FF01C0E5FF02C0E5FF03C0E5FF89
:1031B000006E000E0F012D25016E026A0A0E02221A
:1031C0000050036E01C0E9FF02C0EAFF03C0EFFF39
:1031D000220E2D5D01E22D2B00500A0A0FE10F0196
:1031E0002D51E56E800EE56E0A0EE56E000EE56E61
:1031F00083EC11F0040EE1260F012D6BE4CF03F0F8
:10320000E4CF02F0E4CF01F0E4CF00F0120000C000
:10321000E5FF01C0E5FF02C0E5FF03C0E5FF36CFD3
:1032200000F037CF01F00F01362B01E3372B0050B0
:10323000E56E57EC1BF0E12A036E026A36CF00F010
:1032400037CF01F00F01362B01E3372B0050E56E2D
:1032500057EC1BF0E12A016A02120150031203C06D
:10326000F3FF0250E4CF03F0E4CF02F0E4CF01F02B
:10327000E4CF00F012000F012B510A018E6F0F01F5
:103280002C510A018F6FD6508C6FD7508D6F8E5195
:103290000F012B1905E10A018F510F012C190CE0C8
:1032A0000F012B510A018E6F0F012C510A018F6FF4
:1032B000D6508C6FD7508D6F8FCAE9FF8ECAF4FF3E
:1032C0008DCAF3FF0A018C51120000C0E5FF01C056
:1032D000E5FF0A01B7510A01C01905E00A01B7511B
:1032E0000A01B61902E1E86A15D0B7CA00F00A016E
:1032F000B72B016A600E0026000E012200C0E9FF14
:1033000001C0EAFFEFCF00F0B751800A02E10A01E5
:10331000B76B0050E4CF01F0E4CF00F01200D9CF3A
:10332000E5FFE1CFD9FF00C0E5FF020EDBCF00F0E3
:10333000030EDBCFA8FF00C0A9FFA69EA69CA68413
:10334000F29EF29C550EA76EAA0EA76EA682A6A2AA
:1033500002D00000FCD7E86AA6B6E82AA694F28E4E
:10336000F28CE4CF00F0E4CFD9FF1200D9CFE5FF13
:10337000E1CFD9FF00C0E5FF01C0E5FF02C0E5FFD6
:10338000020EDBCF00F036CF01F037CF02F00F0195
:10339000362B01E3372B0050E56E0150E56E8FECC4
:1033A00019F0020EE126E4CF02F0E4CF01F0E4CF01
:1033B00000F0E4CFD9FF1200D9CFE5FFE1CFD9FF6C
:1033C00000C0E5FF01C0E5FF020EDBCF00F0030EF9
:1033D000DBCF01F00150800F800F02E11C0E005C7A
:1033E00004E300C036FF01C037FFE4CF01F0E4CFB3
:1033F00000F0E4CFD9FF12000A015C51E56E5B5189
:10340000E56E5A51E56E5951E56E5851E56E5751CA
:10341000E56E5651E56E5551E56E5451E56E5351CA
:10342000E56E000EE56E210EE56EF20EE56E27EC00
:1034300017F00D0EE12612000A014C51E56E4B51BA
:10344000E56E4A51E56E4951E56E4851E56E4751CA
:10345000E56E4651E56E4551E56E4451E56E4351CA
:10346000E56E000EE56E210EE56EDC0EE56E27ECD6
:1034700017F00D0EE1261200E8AE0AD0F3CFEAFFF6
:10348000EE50EECFF3FFEECFF4FFEECFE9FF1200E8
:10349000E8BC11D0E9CFF6FFF3CFF7FFF86E0900D3
:1034A000F5500900F5CFF3FF0900F5CFF4FF09004F
:1034B000F5CFE9FF1200120000C0E5FF01C0E5FFF3
:1034C0000F0127510F01281902E1E86A0FD0000E01
:1034D0000F012825006E016A070E012200C0E9FFD6
:1034E00001C0EAFFEFCF00F0282B0050E4CF01F03D
:1034F000E4CF00F01200D9CFE5FFE1CFD9FF00C043
:10350000E5FF01C0E5FF020EDBCF00F0016A630EAC
:1035100000260A0E012200C0E9FF01C0EAFF000EEA
:10352000EF6AE4CF01F0E4CF00F0E4CFD9FF12005E
:10353000E8AE08D0F3CFEAFFEE50EECFF3FFEECFC8
:10354000F4FF1200E8BC0ED0E9CFF6FFF3CFF7FF8F
:10355000F86E0900F5500900F5CFF3FF0900F5CF2B
:10356000F4FF12001200D9CFE5FFE1CFD9FF00C070
:10357000E5FF020EDBCF00F000C02AFF0050E56E31
:10358000000EE56A8FEC19F0020EE126E4CF00F0A0
:10359000E4CFD9FF1200D9CFE5FFE1CFD9FF00C0BA
:1035A000E5FF020EDBCF00F0610E005C05E37B0E51
:1035B000005C02E2010E01D0E86AE4CF00F0E4CF43
:1035C000D9FF120000C0E5FF01C0E5FF36CF00F0D3
:1035D00037CF01F00F01362B01E3372B0050E56E9A
:1035E00057EC1BF0E12AE4CF01F0E4CF00F0120029
:1035F000E8AE06D0F3CFEAFFEE50EECFF3FF1200B5
:10360000E8BC0BD0E9CFF6FFF3CFF7FFF86E090067
:10361000F5500900F5CFF3FF12001200E56A1C0E09
:10362000E56EDCEC19F0020EE1269EEC0DF0800E4A
:10363000E56E0F0EE56E250EE56E77EC15F0030EC8
:10364000E126120018EEFFF028EEFFF0F86AA68ED1
:10365000A69CE9680E0EEA6E0068000EED6A005046
:10366000FDE1C5EC15F0DDEC12F0FFD7E8AE04D0BB
:10367000F3CFEAFFEE501200E8BC08D0E9CFF6FF26
:10368000F3CFF7FFF86E0900F55012001200E8AE14
:103690000BD0F3CFEAFFE4CFEEFFF4CFEEFFF6CF8F
:1036A000EEFFF7CFEEFF1200E8AC12001200D9CF08
:1036B000E5FFE1CFD9FF020EDBCFA9FFA69CA69EB6
:1036C000A680A850E4CFD9FF1200E8AE09D0F3CF0E
:1036D000EAFFE4CFEEFFF4CFEEFFF6CFEEFF1200ED
:1036E000E8AC12001200700ED36E9B8C0F013A9F53
:1036F000FF0E9268936894689668626AF19E120061
:10370000ACA2FED78B90AE500000AE50AB98AB8809
:10371000AB869D8A9D981200E8AE07D0F3CFEAFFF2
:10372000E4CFEEFFF4CFEEFF1200E8AC120012007F
:1037300000C0E5FF5CEC18F0006E005001E1FF00F6
:10374000E4CF00F01200FF0000000000FF000000C6
:1037500000005000000000000000E8AE05D0F3CFEC
:10376000EAFFE4CFEEFF1200E8AC120012001200F4
:1037700043207432202564200A00430025630000A2
:10378000010046370000230F00001300000073EC17
:103790001BF0120065EC19F0120065EC19F0120034
:0837A000E8CF7FFF12001200C8
:00000001FF
