:020000040000FA
:1000000044EF22F0C96E1200B7EF19F0DCEC1FF0DC
:10001000BCEC17F0FDD71200C4EF1CF0D9CFE5FF00
:10002000E1CFD9FF00C0E5FF01C0E5FF02C0E5FF59
:1000300003C0E5FF04C0E5FF05C0E5FF06C0E5FF1E
:1000400007C0E5FF08C0E5FF09C0E5FF0AC0E5FFFE
:100050000BC0E5FF0CC0E5FF0DC0E5FF0EC0E5FFDE
:100060000FC0E5FF10C0E5FF11C0E5FF12C0E5FFBE
:1000700013C0E5FF14C0E5FF15C0E5FF16C0E5FF9E
:1000800017C0E5FF18C0E5FF19C0E5FF1AC0E5FF7E
:100090001BC0E5FF1CC0E5FF1DC0E5FF1EC0E5FF5E
:1000A000020EDBCF00F0030EDBCF01F0040EDBCF3E
:1000B00002F0050EDBCF03F0060EDBCF04F0070ED7
:1000C000DBCF05F0080EDBCF06F0090EDBCF07F023
:1000D0000A0EDBCF08F0096A0A6A02C00DF00D5063
:1000E000800A0DE1025003015C6F01505B6F00500C
:1000F0005A6F030E016E5A0E006E800E026E03C020
:10010000E9FF04C0F3FF05509FEC22F00B6E0B508B
:10011000D8B4C4EF03F00B50250A02E0ABEF03F0B4
:100120000C6A0D6A0E6A0F6A106A0A0E116E126A64
:10013000136A146A200E156E1668176A2B0E186E55
:10014000032A02E3044A052A03C0E9FF04C0F3FFBF
:1001500005509FEC22F0196E250A13E11950E56E47
:100160000250E56E0150E56E0050E56E49EC13F06B
:10017000040EE126094A0A2A032A02E3044A052A50
:10018000BED71950300A06E1300E156E032A02E37D
:10019000044A052A03C0E9FF04C0F3FF05509FECA1
:1001A00022F02D0A06E1010E146E032A02E3044A2E
:1001B000052A03C0E9FF04C0F3FF05509FEC22F0BD
:1001C000200A08E1010E176E200E186E032A02E3C2
:1001D000044A052A03C0E9FF04C0F3FF05509FEC61
:1001E00022F02B0A06E1010E176E032A02E3044AED
:1001F000052A03C0E9FF04C0F3FF05509FEC22F07D
:10020000196E310E195C2BE33A0E195C28E203C01B
:1002100019F004C01AF005C01BF019C0E9FF1AC09C
:10022000F3FF1B509FEC22F01C6E300E1C5C11E3A0
:100230003A0E1C5C0EE213500A0DF3CF1DF01C5059
:100240001D26D00E1D24136E192A02E31A4A1B2AFA
:10025000E4D719C003F01AC004F01BC005F003C0B6
:10026000E9FF04C0F3FF05509FEC22F02E0A2DE1B8
:10027000032A02E3044A052A166A03C019F004C0DF
:100280001AF005C01BF019C0E9FF1AC0F3FF1B509C
:100290009FEC22F01C6E300E1C5C11E33A0E1C5CCD
:1002A0000EE216500A0DF3CF1DF01C501D26D00E85
:1002B0001D24166E192A02E31A4A1B2AE4D719C014
:1002C00003F01AC004F01BC005F003C0E9FF04C02E
:1002D000F3FF05509FEC22F0196E6C0A07E1010E46
:1002E0000C6E032A02E3044A052A09D01950680A51
:1002F00006E1010E0E6E032A02E3044A052A03C03A
:10030000E9FF04C0F3FF05509FEC22F0750A06E1F7
:10031000010E106E032A02E3044A052A03C0E9FF16
:1003200004C0F3FF05509FEC22F0196E730A05E13B
:10033000010E0D6E200E156E3FD01950780A03E1A4
:10034000100E116E39D01950580A05E1100E116EB9
:10035000010E126E31D01950630A02E1116A2CD0DD
:1003600019506F0A03E1080E116E26D01950660A63
:1003700003E1010E0F6E20D01950640A1DE01950E0
:10038000690A1AE0105005E0FF0E03260422052238
:1003900013D01950E56E0250E56E0150E56E005025
:1003A000E56E49EC13F0040EE126094A0A2A032AF5
:1003B00002E3044A052AA3D60D5021E00650030F9C
:1003C0000D6E000E0720196E000E08201A6E0DC06B
:1003D00006F019C007F01AC008F0FD0E0D26FF0E3A
:1003E00019221A220DC0E9FF19C0F3FF1A5059EC67
:1003F00021F00D6EF3CF19F0F4CF1AF0FDD00F50AD
:100400000DE0000E1A6E080E196E100E0D6E040E21
:100410000626000E072208221668EED016680C5039
:1004200023E00650040F0C6E000E07200F6E000E26
:1004300008201B6E0CC006F00FC007F01BC008F0B0
:10044000FC0E0C26FF0E0F221B220CC0E9FF0FC072
:10045000F3FF1B50C2EC20F00C6EF3CF0FF0F4CF83
:100460001BF0E9CF1CF067D00E502FE00650020FB2
:100470000E6E000E07201D6E000E08201E6E0EC0B0
:1004800006F01DC007F01EC008F0FE0E0E26FF0E7F
:100490001D221E220EC0E9FF1DC0F3FF1E5018ECE6
:1004A00022F00E6E0EC00CF00F6A1B6A1C6A11500F
:1004B0000A0A03E11050D8B43ED00C500E6E0EC0A4
:1004C0000CF00F6A1B6A1C6A36D00650020F0E6EC3
:1004D000000E07201D6E000E08201E6E0EC006F0D6
:1004E0001DC007F01EC008F0FE0E0E26FF0E1D22D6
:1004F0001E220EC0E9FF1DC0F3FF1E5018EC22F0B3
:100500000E6EF3CF1DF00EC00CF01DC00FF0E86AA8
:100510001DBEFF0E1B6E1C6E11500A0A02E1105028
:100520000AE00C500E6E0F501D6E0EC00CF01DC078
:100530000FF01B6A1C6A040E196EF40E0D6E800E0D
:100540001A6E1150D8B440D0105013E01150E56E1F
:10055000040EE56EF40EE56E1C50E56E1B50E56E64
:100560000F50E56E0C50E56E82EC0FF0070EE126A1
:1005700012D01150E56E040EE56EF40EE56E1C50BF
:10058000E56E1B50E56E0F50E56E0C50E56E54ECB9
:1005900019F0070EE12617502FE00DC0E9FF19C032
:1005A000F3FF1A509FEC22F02D0A26E0FF0E0D26D5
:1005B00019221A2218C0E5FF0DC0E9FF19C0F3FF88
:1005C0001A5024EC23F018D00CC0E5FF0DC0E9FF51
:1005D00019C0F3FF1A5024EC23F00D50010F0C6EDC
:1005E000000E19200E6E000E1A20E56A0CC0E9FFFD
:1005F0000EC0F3FF24EC23F00DC00CF019C00EF078
:100600001AC00FF013C010F0105010E00CC0E9FF3A
:100610000EC0F3FF0F509FEC22F0176E175006E04C
:100620000C2A02E30E4A0F2A1006EED710C013F070
:1006300014501EE109C00CF00AC00EF010C00FF0FB
:100640000F5010E01550E56E0250E56E0150E56E5A
:100650000050E56E49EC13F0040EE1260C4A0E2A18
:100660000F06EED70CC009F00EC00AF00FC013F051
:1006700016C00CF00DC00DF019C00EF01AC00FF02E
:1006800009C010F00AC015F00DC0E9FF0EC0F3FF5D
:100690000F509FEC22F0166E1650D8B43ED00CC00E
:1006A00016F0176A161E171E1650171005E00CC01C
:1006B00016F00C06165031E00DC0E9FF0EC0F3FF36
:1006C0000F509FEC22F0116E125010E01150E56EA9
:1006D000D5EC21F0166EE652165004E0DF0E111430
:1006E000166E02D011C016F016C011F01150E56E52
:1006F0000250E56E0150E56E0050E56E49EC13F0D6
:10070000040EE1260D2A02E30E4A0F2A104A152A8A
:100710001350D8B4B9D71306B7D710C009F015C015
:100720000AF014502BE010C00CF015C00DF013C0EF
:100730000EF00E501FE0200EE56E0250E56E0150E7
:10074000E56E0050E56E49EC13F0040EE1260C4A0C
:100750000D2A0E06EED70B50E56E0250E56E0150E5
:10076000E56E0050E56E49EC13F0040EE126094AEF
:100770000A2A04D00CC009F00DC00AF0032A02E3D3
:10078000044A052A7FEF00F00AC0F3FF0950E4CFC6
:100790001EF0E4CF1DF0E4CF1CF0E4CF1BF0E4CF5B
:1007A0001AF0E4CF19F0E4CF18F0E4CF17F0E4CF5B
:1007B00016F0E4CF15F0E4CF14F0E4CF13F0E4CF5B
:1007C00012F0E4CF11F0E4CF10F0E4CF0FF0E4CF5B
:1007D0000EF0E4CF0DF0E4CF0CF0E4CF0BF0E4CF5B
:1007E0000AF0E4CF09F0E4CF08F0E4CF07F0E4CF5B
:1007F00006F0E4CF05F0E4CF04F0E4CF03F0E4CF5B
:1008000002F0E4CF01F0E4CF00F0E4CFD9FF120012
:100810003C4E4F20464C4F41543E000000C0E5FF87
:1008200001C0E5FF02C0E5FF03C0E5FF04C0E5FF2E
:100830006CEC15F0F7EC1BF004013BA136D0938073
:10084000810E006E0F0E016E0F0E036E380E002625
:10085000035001220F0E036E800E005E0350015AFA
:10086000810E026E0F0E036E0F0E046E380E0226FE
:10087000045003220F0E046E800E025E0450035AD1
:1008800002C0E9FF03C0EAFFEFCF02F0028000C020
:10089000E9FF01C0EAFF02C0EFFF0C0EE56E000E9B
:1008A000E56AF1EC18F0E652E65204013BA33CD0B5
:1008B0009382810E006E0F0E016E0F0E036E380EC6
:1008C0000026035001220F0E036E800E005E0350BF
:1008D000015A810E026E0F0E036E0F0E046E380E5B
:1008E0000226045003220F0E046E800E025E045096
:1008F000035A02C0E9FF03C0EAFFEFCF02F0029201
:1009000000C0E9FF01C0EAFF02C0EFFF010EE56E83
:10091000800EE56E0F0EE56E810EE56E000EE56A47
:100920003EEC1CF0050EE12604013BA53CD093846F
:10093000810E006E0F0E016E0F0E036E380E002634
:10094000035001220F0E036E800E005E0350015A09
:10095000810E026E0F0E036E0F0E046E380E02260D
:10096000045003220F0E046E800E025E0450035AE0
:1009700002C0E9FF03C0EAFFEFCF02F0029400C01B
:10098000E9FF01C0EAFF02C0EFFF020EE56E800E34
:10099000E56E0F0EE56E810EE56E010EE56E3EEC26
:1009A0001CF0050EE12604013BA73CD09386810E86
:1009B000006E0F0E016E0F0E036E380E00260350F0
:1009C00001220F0E036E800E005E0350015A810E4D
:1009D000026E0F0E036E0F0E046E380E02260450C8
:1009E00003220F0E046E800E025E0450035A02C0F2
:1009F000E9FF03C0EAFFEFCF02F0029600C0E9FF73
:100A000001C0EAFF02C0EFFF030EE56E800EE56E47
:100A10000F0EE56E810EE56E020EE56E3EEC1CF0EB
:100A2000050EE12604013BA93CD09388810E006E9F
:100A30000F0E016E0F0E036E380E002603500122BA
:100A40000F0E036E800E005E0350015A810E026E7F
:100A50000F0E036E0F0E046E380E02260450032292
:100A60000F0E046E800E025E0450035A02C0E9FFAE
:100A700003C0EAFFEFCF02F0029800C0E9FF01C017
:100A8000EAFF02C0EFFF040EE56E800EE56E0F0E6A
:100A9000E56E810EE56E030EE56E3EEC1CF0050E74
:100AA000E12604013BAB3CD0938A810E006E0F0E11
:100AB000016E0F0E036E380E0026035001220F0E3A
:100AC000036E800E005E0350015A810E026E0F0EFF
:100AD000036E0F0E046E380E0226045003220F0E12
:100AE000046E800E025E0450035A02C0E9FF03C088
:100AF000EAFFEFCF02F0029A00C0E9FF01C0EAFF6F
:100B000002C0EFFF050EE56E800EE56E0F0EE56E7E
:100B1000810EE56E040EE56E3EEC1CF0050EE1263E
:100B200004013BAD3CD0938C810E006E0F0E016E24
:100B30000F0E036E380E0026035001220F0E036EB7
:100B4000800E005E0350015A810E026E0F0E036E7E
:100B50000F0E046E380E0226045003220F0E046E90
:100B6000800E025E0450035A02C0E9FF03C0EAFF90
:100B7000EFCF02F0029C00C0E9FF01C0EAFF02C013
:100B8000EFFF060EE56E800EE56E0F0EE56E810E30
:100B9000E56E050EE56E3EEC1CF0050EE126040147
:100BA0003BAF3CD0938E810E006E0F0E016E0F0E88
:100BB000036E380E0026035001220F0E036E800EC6
:100BC000005E0350015A810E026E0F0E036E0F0E6F
:100BD000046E380E0226045003220F0E046E800E9F
:100BE000025E0450035A02C0E9FF03C0EAFFEFCFE0
:100BF00002F0029E00C0E9FF01C0EAFF02C0EFFF61
:100C0000070EE56E800EE56E0F0EE56E810EE56E49
:100C1000060EE56E3EEC1CF0050EE12604013CA13B
:100C20003AD09280800E006E0F0E016E0F0E036E92
:100C3000380E002603500122800E026E0F0E036E46
:100C4000800E005E0350015A0F0E046E380E02260D
:100C5000045003220F0E046E800E025E0450035AED
:100C600002C0E9FF03C0EAFFEFCF02F0029000C02C
:100C7000E9FF01C0EAFF02C0EFFF016EE56A800EE6
:100C8000E56E0150E56E800EE56E070EE56E3EECFA
:100C90001CF0050EE12604013CA33BD09282800E9D
:100CA000006E0F0E016E0F0E036E380E00260350FD
:100CB0000122800E026E0F0E036E800E005E035046
:100CC000015A0F0E046E380E0226045003220F0E36
:100CD000046E800E025E0450035A02C0E9FF03C096
:100CE000EAFFEFCF02F0029200C0E9FF01C0EAFF85
:100CF00002C0EFFF016E010EE56E800EE56E015041
:100D0000E56E800EE56E080EE56E3EEC1CF0050EFD
:100D1000E12604013CA53BD09284800E006E0F0EAC
:100D2000016E0F0E036E380E002603500122800E56
:100D3000026E0F0E036E800E005E0350015A0F0EFE
:100D4000046E380E0226045003220F0E046E800E2D
:100D5000025E0450035A02C0E9FF03C0EAFFEFCF6E
:100D600002F0029400C0E9FF01C0EAFF02C0EFFFF9
:100D7000016E020EE56E800EE56E0150E56E800E8E
:100D8000E56E090EE56E3EEC1CF0050EE126E4CFA3
:100D900004F0E4CF03F0E4CF02F0E4CF01F0E4CFBD
:100DA00000F0120043207432202564200A00430022
:100DB0002563000000C0E5FF01C0E5FF02C0E5FFBC
:100DC00003C0E5FF04C0E5FF05C0E5FF06C0E5FF81
:100DD00007C0E5FF08C0E5FF09C0E5FF0AC0E5FF61
:100DE0000BC0E5FF0CC0E5FF006A016A026A040E51
:100DF000025CD8B0E8D101C003F0012A100E035CF8
:100E0000D8B0E1D104014B2B100E4B5D01E34B6BCD
:100E100004014B39E8441F0B036E046A5F0E03267E
:100E2000030E042203C0E9FF04C0EAFFEFCF03F082
:100E3000070E4B15046E010E056E000E066E045073
:100E400006E0E86CD89005360636010FFCE3076A29
:100E5000035005160750061605500610D880E866A0
:100E6000D890056A05360550D8A4C1D704014B5166
:100E7000020DF450046EF3CF03F0E00E0324056E70
:100E8000000E0420066E05C0E9FF06C0EAFFEECFA3
:100E900005F0EFCF06F0040148A19DD0B30E032466
:100EA000076E040E0420086E07C0E9FF08C0EAFFC1
:100EB000EECF07F0EFCF08F00650800FF36E08502A
:100EC000800FF35C02E10750055C03E2056A066AE5
:100ED00060D0D30E0326040E042203C0E9FF04C031
:100EE000EAFFEECF03F0EFCF04F00450800FF36E73
:100EF0000650800FF35C02E10550035C04E20568D4
:100F00003F0E066E46D00750055C096E0850065825
:100F10000A6EE86A0ABEFF0E0B6EE56E0B50E56EB8
:100F20000A50E56E0950E56EE56AE56A400EE56E29
:100F3000000EE56A8DEC0CF0096EF3CF0AF0F4CFE9
:100F40000BF0E9CF0CF0080EE1260750035C076EAA
:100F500008500458086EE86A08BEFF0E036EE56E7E
:100F60000350E56E0850E56E0750E56E0C50E56ED7
:100F70000B50E56E0A50E56E0950E56E2CEC12F050
:100F8000036EF3CF04F0080EE1260350056E045003
:100F9000066E04014751800FF36E0650800FF35C1C
:100FA00002E10550465D03E3056A066A14D00401B8
:100FB0004651FF08036E3F0E4755046E0650800FE2
:100FC000F36E0450800FF35C02E10350055C03E311
:100FD00005683F0E066E04014B51020DF450046E7D
:100FE000F3CF03F0930E0326040E042203C0E9FF9F
:100FF00004C0EAFFEECF03F0EFCF04F00350055C2E
:10100000036E04500658046ED88004AED89004E3F2
:10101000041E036CD8B4042A022A04014751800F2D
:10102000F36E0450800FF35C02E10350465DD8B0CC
:10103000DED604014B51020DF450086EF3CF07F0D9
:10104000930E0726040E082207C0E9FF08C0EAFF36
:1010500005C0EEFF06C0EFFF040148A55AD0040109
:101060004B51020DF450086EF3CF07F0000E072429
:10107000096E030E08200A6E09C0E9FF0AC0EAFFE4
:10108000EECF0BF0EFCF0CF00B500C10D8B441D0DA
:101090005B0E0726040E082207C0E9FF08C0EAFF1E
:1010A000EECF07F0EFCF08F00750055C036E085055
:1010B0000658046E03101CE00450800F800F02E1FC
:1010C000010E035C076A07360C50800F800F02E1A7
:1010D000010E0B5C0B6A0B3607500B1809E109C0B7
:1010E000E9FF0AC0EAFF03C0EEFF04C0EFFF7FD6AE
:1010F00004014B51020DF450046EF3CF03F0000EC7
:101100000326030E042203C0E9FF04C0EAFFEE6ACF
:10111000EF6A040148A343D000500EE100C003F081
:10112000002A046A4C0E0326040E042203C0E9FFC1
:1011300004C0EAFF420EEF6E00C003F0002A046A0A
:101140004C0E0326040E0422640E04014B25076E88
:1011500003C0E9FF04C0EAFF07C0EFFF00C003F0CF
:10116000002A046A4C0E0326040E04220650076E61
:1011700003C0E9FF04C0EAFF07C0EFFF00C003F0AF
:10118000002A046A4C0E0326040E04220550076E42
:1011900003C0E9FF04C0EAFF07C0EFFF28D64BC435
:1011A00003F00650E56E0550E56EE56A0350E56E06
:1011B000000EE56E2B0EE56ED20EE56E85EC1DF091
:1011C000070EE12614D602C001F000501DE0040114
:1011D00048A31AD000C002F0002A036A4C0E02266F
:1011E000040E032202C0E9FF03C0EAFF0A0EEF6EFD
:1011F0000050E56E800EE56E040EE56E4C0EE56E59
:10120000EFEC15F0040EE1260150E4CF0CF0E4CF32
:101210000BF0E4CF0AF0E4CF09F0E4CF08F0E4CF1C
:1012200007F0E4CF06F0E4CF05F0E4CF04F0E4CF1C
:1012300003F0E4CF02F0E4CF01F0E4CF00F01200BD
:1012400000C0E5FF01C0E5FF02C0E5FF03C0E5FF08
:1012500004C0E5FF05C0E5FF06C0E5FF07C0E5FFE8
:1012600008C0E5FF09C0E5FF0AC0E5FFC2A204D03F
:101270000401495135EF0BF004014A51D8B41DD196
:1012800004014951020DF450016EF3CF00F0E00E5D
:101290000026000E012200C0E9FF01C0EAFFEECFE8
:1012A00000F0EFCF01F0230E4925026E036A040E11
:1012B000032202C0E9FF03C0EAFFEFCF02F00250B1
:1012C000FF0A01E152D002380F0B036E920E032485
:1012D000046E056A0F0E0522066A920E03260F0E93
:1012E000062203C0E9FF06C0EAFFEFCF03F0070EB6
:1012F0000214066E010E076E065005E0E86CD890E9
:101300000736010FFDE3071C066E031604C0E9FF54
:1013100005C0EAFF03C0EFFF02380F0B036E890E12
:101320000324046E056A0F0E0522066A890E032641
:101330000F0E062203C0E9FF06C0EAFFEFCF03F05D
:10134000070E0214066E010E076E065005E0E86CEB
:10135000D8900736010FFDE3071C066E031604C084
:10136000E9FF05C0EAFF03C0EFFF04014951020D88
:10137000F450046EF3CF03F0E00E0326000E0422B7
:1013800000380F0B056E0138066EF00B061A0526A5
:1013900006320532F80E06B406260550005C056ECE
:1013A00006500158066EC3CF07F0086A075005269D
:1013B00008500622C4CF07F0086A07500A6E096A6F
:1013C000095005260A50062203C0E9FF04C0EAFFBF
:1013D00005C0EEFF06C0EFFF04014551010A01E020
:1013E0006AD004014951020DF450046EF3CF03F0AA
:1013F000E00E0324056E000E0420066E05C0E9FF12
:1014000006C0EAFFEECF00F0EFCF01F0B30E0326E7
:10141000040E042203C0E9FF04C0EAFFEECF05F08A
:10142000EFCF06F09C0E0526D8A006060150800FCF
:10143000F36E0650800FF35C02E10550005C0EE293
:101440000050640F056E000E0120066E03C0E9FF18
:1014500004C0EAFF05C0EEFF06C0EFFF04014951DA
:10146000020DF450046EF3CF03F0D30E0326040EE6
:10147000042203C0E9FF04C0EAFFEECF05F0EFCF7E
:1014800006F0640E0526D8B0062A0650800FF36ECB
:101490000150800FF35C02E10050055C0CE29C0EF1
:1014A0000026D8A0010603C0E9FF04C0EAFF00C07F
:1014B000EEFF01C0EFFF04014A6B0401492B100E3F
:1014C000495D01E3496B04014939E8441F0B006E93
:1014D000016A5F0E0026030E012200C0E9FF01C071
:1014E000EAFFEFCF00F0070E4915016E010E036E03
:1014F000000E046E015006E0E86CD8900336043606
:10150000010FFCE3056A0050031605500416035052
:101510000410D880E866D890036A03360350D8A434
:10152000A2D0230E04014925006E016A0F0E01228C
:1015300000C0E9FF01C0EAFFEFCF00F00044E8443B
:10154000FC0B016E0128C26E230E4925006E016A54
:10155000040E012200C0E9FF01C0EAFFEFCF02F054
:101560000250FF0A01E17BD002380F0B006E920E91
:101570000024016E036A0F0E0322046A920E0026F5
:101580000F0E042200C0E9FF04C0EAFFEFCF00F015
:10159000070E0214046E010E056E045005E0E86C9F
:1015A000D8900536010FFDE30550001201C0E9FF98
:1015B00003C0EAFF00C0EFFF380E006E0F0E016E91
:1015C00002380F0B036E046A0350002604500122F8
:1015D000380E056E0F0E066E0550032606500422C7
:1015E00003C0E9FF04C0EAFFEFCF03F0070E0216C5
:1015F000010E046E025005E0E86CD8900436010F2D
:10160000FDE30450031200C0E9FF01C0EAFF03C07C
:10161000EFFF0F0145830000000045930F01449345
:101620000BC0E5FFF2CF0BF0F29E448100000000FA
:1016300000000000000000000000000000000000AA
:10164000000000000000000000000000000000009A
:101650000000000044910BBEF28EE4CF0BF0C2827A
:10166000010E04014A6F04014951E4CF0AF0E4CFAE
:1016700009F0E4CF08F0E4CF07F0E4CF06F0E4CFC0
:1016800005F0E4CF04F0E4CF03F0E4CF02F0E4CFC0
:1016900001F0E4CF00F01200800EE56E040EE56E5E
:1016A000D30EE56EC4EC1AF0030EE126800EE56E53
:1016B000040EE56EB30EE56EC4EC1AF0030EE126DF
:1016C000800EE56E040EE56ED50EE56EC4EC1AF0E4
:1016D000030EE126800EE56E040EE56EB50EE56E96
:1016E000C4EC1AF0030EE126800EE56E040EE56EE2
:1016F000D70EE56EC4EC1AF0030EE126800EE56EFF
:10170000040EE56EB70EE56EC4EC1AF0030EE1268A
:10171000800EE56E040EE56ED90EE56EC4EC1AF08F
:10172000030EE126800EE56E040EE56EB90EE56E41
:10173000C4EC1AF0030EE126800EE56E040EE56E91
:10174000DB0EE56EC4EC1AF0030EE126800EE56EAA
:10175000040EE56EBB0EE56EC4EC1AF0030EE12636
:10176000800EE56E040EE56EDD0EE56EC4EC1AF03B
:10177000030EE126800EE56E040EE56EBD0EE56EED
:10178000C4EC1AF0030EE126800EE56E040EE56E41
:10179000DF0EE56EC4EC1AF0030EE126800EE56E56
:1017A000040EE56EBF0EE56EC4EC1AF0030EE126E2
:1017B000800EE56E040EE56EE10EE56EC4EC1AF0E7
:1017C000030EE126800EE56E040EE56EC10EE56E99
:1017D000C4EC1AF0030EE126800EE56E040EE56EF1
:1017E000E30EE56EC4EC1AF0030EE126800EE56E02
:1017F000040EE56EC30EE56EC4EC1AF0030EE1268E
:10180000800EE56E040EE56EE50EE56EC4EC1AF092
:10181000030EE126800EE56E040EE56EC50EE56E44
:10182000C4EC1AF0030EE126800EE56E040EE56EA0
:10183000E70EE56EC4EC1AF0030EE126800EE56EAD
:10184000040EE56EC70EE56EC4EC1AF0030EE12639
:10185000800EE56E040EE56EE90EE56EC4EC1AF03E
:10186000030EE126800EE56E040EE56EC90EE56EF0
:10187000C4EC1AF0030EE126800EE56E040EE56E50
:10188000EB0EE56EC4EC1AF0030EE126800EE56E59
:10189000040EE56ECB0EE56EC4EC1AF0030EE126E5
:1018A000800EE56E040EE56EED0EE56EC4EC1AF0EA
:1018B000030EE126800EE56E040EE56ECD0EE56E9C
:1018C000C4EC1AF0030EE126800EE56E040EE56E00
:1018D000EF0EE56EC4EC1AF0030EE126800EE56E05
:1018E000040EE56ECF0EE56EC4EC1AF0030EE12691
:1018F000800EE56E040EE56EF10EE56EC4EC1AF096
:10190000030EE126800EE56E040EE56ED10EE56E47
:10191000C4EC1AF0030EE1261200D9CFE5FFE1CFA7
:10192000D9FF00C0E5FF01C0E5FF02C0E5FF03C02D
:10193000E5FF04C0E5FF05C0E5FF06C0E5FF07C001
:10194000E5FF020EDBCF00F0030EDBCF01F0040E4B
:10195000DBCF02F0050EDBCF03F0060EDBCF04F089
:10196000070EDBCF05F0080EDBCF06F0090EDBCF4C
:1019700007F000500401816F0150826F0250836FA5
:101980000350846F04500401856F0550866F065024
:10199000876F0750886F0401815104018703F4CFDA
:1019A00001F0F3CF00F0005004018C6F01508D6FF7
:1019B0000401815104018503F4CF01F0F3CF00F05D
:1019C000005004018A6F01508B6F0401845104019F
:1019D0008503F3CF00F004018D51002600508D6F78
:1019E0000401835104018603F3CF01F00150002666
:1019F000005004018D6F0401835104018503F4CF6D
:101A000001F0F3CF00F004018C5100268D5101222A
:101A100000508C6F01508D6F0401825104018603C8
:101A2000F4CF03F0F3CF02F002500026035001225E
:101A3000005004018C6F01508D6F0401825104012C
:101A40008703F3CF00F000500401916F040182512D
:101A500004018503F4CF01F0F3CF00F0005004013E
:101A60008F6F0150906F0401815104018803F3CFFF
:101A700000F000500301536F0401815104018603FB
:101A8000F4CF01F0F3CF00F000500301516F01508B
:101A9000526F04018E6B0301506B04018E510401DF
:101AA0008A25006E04018F5104018B21016E04010F
:101AB000905104018C21026E0401915104018D2189
:101AC000036E00508A6F01508B6F02508C6F035071
:101AD0008D6F0301505104018A25006E030151519D
:101AE00004018B21016E0301525104018C21026E0D
:101AF0000301535104018D21036E03C0E9FF02C0AD
:101B0000F4FF01C0F3FF0050E4CF07F0E4CF06F08C
:101B1000E4CF05F0E4CF04F0E4CF03F0E4CF02F02B
:101B2000E4CF01F0E4CF00F0E4CFD9FF120000C011
:101B3000E5FF01C0E5FF04014251D8B4F7D09DA8EC
:101B40001DD09EA81BD003016E5103016B1905E146
:101B5000CDEC22F003016B6BE9D0000E03016E2582
:101B6000006E016A040E012200C0E9FF01C0EAFF15
:101B7000EFCF67F36E2B67C3ADFFD8D09DAAD6D049
:101B80009EAAD4D0ABA205D003016C81CDEC22F08B
:101B9000CDD0ABA405D003016C83CDEC22F0C6D030
:101BA000ABA03ED0AECF67F3800E0401431103011A
:101BB000671904E103016C89AB96B8D00301675142
:101BC00004E067510401431927E103016C99AB96C6
:101BD0000301675103E003016C9702D003016C8796
:101BE00067C370F369C371F3030169050301726F81
:101BF000600E03017125006E016A000E012200C013
:101C0000E9FF01C0EAFF67C3EFFF712B7151800A42
:101C100002E10301716B8AD003016C99AB8686D017
:101C2000AECF67F303016CA919D0800E04014311F4
:101C30000301671911E19D9AAB98948003016B51E0
:101C400004E1AD6ACDEC22F007D000C4ADFF010E77
:101C500003016E6F9D886AD0AB8668D0030167511F
:101C60000301702703017151030172191BE1030184
:101C700070510CE171C369F303016CB712D09D9AE6
:101C8000AB989480AD6ACDEC22F00BD003016C854B
:101C90006CB707D09D9AAB989480010EAD6ECDECD9
:101CA00022F044D00301715103016A1908E10301D4
:101CB0006A510301691903E0CDEC22F037D069C302
:101CC00000F0016A004A012AE56A800EE56E0150C3
:101CD000E56E0050E56EE1EC16F0006E040EE126B4
:101CE00000500301686F030171190CE11F0E03011D
:101CF00067150301726F722B722B03016951030187
:101D00007227729F71C300F00301712B016A600E8C
:101D10000026000E012200C0E9FF01C0EAFF67C3F0
:101D2000EFFF7151800A02E10301716BE4CF01F012
:101D3000E4CF00F0120000C0E5FF01C0E5FF02C0E3
:101D4000E5FF03C0E5FF04C0E5FF05C0E5FF06C0F1
:101D5000E5FF07C0E5FF08C0E5FF09C0E5FF0AC0D1
:101D6000E5FF006A016A040E015CD8B0B3D0400EF2
:101D700004015925026E036A030E032202C0E9FF23
:101D800003C0EAFFEFCF02F00250FF0A01E19BD04F
:101D900004015939E8441F0B026E630E0224036EDE
:101DA000046A030E042203C0E9FF04C0EAFFEFCF78
:101DB00003F0070E5915046E010E056E000E066E37
:101DC000045006E0E86CD89005360636010FFCE3B7
:101DD000076A055003160650071603500710D880EF
:101DE000E866D890036A03360350D880E866D89036
:101DF000036A0336076A610E0226030E072202C039
:101E0000E9FF07C0EAFFEFCF08F008C009F00A6A4F
:101E1000095005160A50061605500610D880E866C7
:101E2000D890056A05360550D880E866D890056ACE
:101E300005360350051801E146D0035012E0010EAB
:101E4000056E045005E0E86CD8900536010FFDE3FF
:101E50000550081202C0E9FF07C0EAFF08C0EFFF03
:101E600017D002C0E9FF07C0EAFFEFCF05F0010E6F
:101E7000066E045005E0E86CD8900636010FFDE3CD
:101E8000061C051602C0E9FF07C0EAFF05C0EFFF08
:101E9000035003E1036A032A01D0036A59C404F022
:101EA000E56A0350E56EE56A0450E56E000EE56EE6
:101EB000380EE56E700EE56E85EC1DF0070EE1261E
:101EC000012A01C000F00401592B100E595DD8A061
:101ED0004AD7596B0050E4CF0AF0E4CF09F0E4CFC1
:101EE00008F0E4CF07F0E4CF06F0E4CF05F0E4CF4C
:101EF00004F0E4CF03F0E4CF02F0E4CF01F0E4CF4C
:101F000000F01200D9CFE5FFE1CFD9FF00C0E5FF17
:101F100001C0E5FF02C0E5FF03C0E5FF04C0E5FF27
:101F200005C0E5FF06C0E5FF07C0E5FF08C0E5FF07
:101F300009C0E5FF0AC0E5FF0BC0E5FF0CC0E5FFE7
:101F40000DC0E5FF0EC0E5FF0FC0E5FF020EDBCFC1
:101F500000F0030EDBCF01F0040EDBCF02F0050E24
:101F6000DBCF03F0060EDBCF04F0070EDBCF05F06E
:101F7000080EDBCF06F0200E076E086A06C009F0D7
:101F80000A6A0B6A0C6AE56AE56AE56A0950E56E59
:101F90000350E56E0250E56E0150E56E0050E56EAF
:101FA000FEEC10F00D6E080EE126300E0D263A0EF6
:101FB0000D5C05E30D500E6E270E0E240D6EFF0E08
:101FC00007260822200E07240E6E030E08200F6E2F
:101FD0000EC0E9FF0FC0EAFF0DC0EFFF0C50E56E29
:101FE0000B50E56E0A50E56E0950E56E0350E56E44
:101FF0000250E56E0150E56E0050E56E2CEC12F0DB
:10200000006EF3CF01F0F4CF02F0E9CF03F0080E39
:10201000E1260050011002100310D8A4AFD707C06A
:1020200000F008C001F004C002F005C003F000C0D9
:1020300004F001C005F0004A012A200E0426030E18
:10204000052204C0E9FF05C0EAFFEFCF04F002C09B
:10205000E9FF03C0EAFF04C0EFFF024A032A000EB3
:10206000015C02E1200E005CE2E302C0E9FF03C074
:10207000EAFF000EEF6AE4CF0FF0E4CF0EF0E4CFFA
:102080000DF0E4CF0CF0E4CF0BF0E4CF0AF0E4CF96
:1020900009F0E4CF08F0E4CF07F0E4CF06F0E4CF96
:1020A00005F0E4CF04F0E4CF03F0E4CF02F0E4CF96
:1020B00001F0E4CF00F0E4CFD9FF120000C0E5FF4B
:1020C00001C0E5FF02C0E5FF03C0E5FF04C0E5FF76
:1020D00005C0E5FF006A400E0024016E026A030E8F
:1020E000022201C0E9FF02C0EAFFEFCF01F0015078
:1020F000FF0A01E171D001380F0B026E036A800EF6
:1021000002260F0E032202C0E9FF03C0EAFFEFCF51
:1021100002F0070E0116010E036E000E046E015050
:1021200006E0E86CD89003360436010FFCE3056A3C
:10213000025003160550041603500410D880E866B8
:10214000D890036A0336035024E10038E8441F0B9B
:10215000016E026A630E0126030E022201C0E9FF2E
:1021600002C0EAFFEFCF03F0070E0014046E010E69
:10217000056E045005E0E86CD8900536010FFDE3CC
:102180000550031201C0E9FF02C0EAFF03C0EFFFE0
:1021900023D00038E8441F0B016E026A630E01264B
:1021A000030E022201C0E9FF02C0EAFFEFCF03F0F5
:1021B000070E0014046E010E056E045005E0E86C75
:1021C000D8900536010FFDE3051C031601C0E9FF99
:1021D00002C0EAFF03C0EFFF002A100E005CD8A087
:1021E0007AD7E4CF05F0E4CF04F0E4CF03F0E4CFF6
:1021F00002F0E4CF01F0E4CF00F01200D9CFE5FF08
:10220000E1CFD9FF00C0E5FF01C0E5FF02C0E5FF57
:1022100003C0E5FF04C0E5FF05C0E5FF06C0E5FF1C
:1022200007C0E5FF08C0E5FF09C0E5FF0AC0E5FFFC
:10223000020EDBCF00F0030EDBCF01F0040EDBCF8C
:1022400002F0050EDBCF03F0060EDBCF04F0070E25
:10225000DBCF05F0080EDBCF06F0090EDBCF07F071
:10226000086A045005100610071005E1E968F468D3
:10227000F368E86847D0096A0750800BE8440A6EA3
:102280000A501BE10450042605360636073607506F
:10229000035C08E10650025C05E10550015C02E1C7
:1022A0000450005C06E2D890073206320532043250
:1022B00004D0092A09C008F0DFD70750035C08E101
:1022C0000650025C05E10550015C02E10450005C2F
:1022D00008E30450005E0550015A0650025A0750A8
:1022E000035AD890073206320532043208C009F08A
:1022F00008060950E2E103C0E9FF02C0F4FF01C093
:10230000F3FF0050E4CF0AF0E4CF09F0E4CF08F087
:10231000E4CF07F0E4CF06F0E4CF05F0E4CF04F01B
:10232000E4CF03F0E4CF02F0E4CF01F0E4CF00F01B
:10233000E4CFD9FF120000C0E5FF01C0E5FF02C0F5
:10234000E5FF03C0E5FF04C0E5FF03016A51030197
:10235000691901E15FD06AC300F0002A009E600E97
:102360000024016E026A000E022201C0E9FF02C0D1
:10237000EAFFEFCF74F31F0E030174176AC373F300
:10238000745103017327732B732B739FB2EC1FF0EF
:10239000016E015003E1016A012A01D0016AB2EC29
:1023A0001FF00301746F800E7415026E1F0E7415FA
:1023B000036E03C004F003C074F3045003E169C367
:1023C0006AF33FD001501BE0025022E0B2EC1FF054
:1023D000006E030174070050420A1AE000504E0AD2
:1023E00003E182EC1CF014D00050460A03E10EEC2D
:1023F00023F00ED00050490A0BE1FF0009D06AC358
:1024000075F3025003E08DEC18F002D005EC1DF0DE
:1024100073C36AF304013F510401401906E003014C
:102420006B5103E15FEC14F00CD0006A94B0002A09
:102430000050010A06E103016B5103E1ACB2CDEC9F
:1024400022F0E4CF04F0E4CF03F0E4CF02F0E4CFD5
:1024500001F0E4CF00F01200D9CFE5FFE1CFD9FFC2
:1024600000C0E5FF01C0E5FF02C0E5FF03C0E5FFD6
:1024700004C0E5FF05C0E5FF06C0E5FF07C0E5FFB6
:1024800008C0E5FF09C0E5FF0AC0E5FF0BC0E5FF96
:102490000CC0E5FF0DC0E5FF020EDBCF00F0030E20
:1024A000DBCF01F0040EDBCF02F0050EDBCF03F033
:1024B000060EDBCF04F0070EDBCF05F0080EDBCFF6
:1024C00006F0090EDBCF07F0086A096A0A6A0B6A90
:1024D000200E0C6E0350800BE8440D6E0050002659
:1024E0000136023603360850082609360A360B36FE
:1024F0000D50D8A4088007500B5C08E106500A5C18
:1025000005E10550095C02E10450085C09E3045050
:10251000085E0550095A06500A5A07500B5A0080A7
:102520000C040D6E0DC00CF00D50D4E103C0E9FF9A
:1025300002C0F4FF01C0F3FF0050E4CF0DF0E4CF80
:102540000CF0E4CF0BF0E4CF0AF0E4CF09F0E4CFD5
:1025500008F0E4CF07F0E4CF06F0E4CF05F0E4CFD5
:1025600004F0E4CF03F0E4CF02F0E4CF01F0E4CFD5
:1025700000F0E4CFD9FF120000C0E5FF01C0E5FF85
:1025800003C0E5FF04C0E5FF05C0E5FF06C0E5FFA9
:1025900007C0E5FF08C0E5FF09C0E5FF0AC0E5FF89
:1025A0000BC0E5FF5DC300F05EC301F003015D3FBA
:1025B00001D05E2B0050E56EBFEC22F0E652076EB4
:1025C000046A056A066A5DC300F05EC301F0030198
:1025D0005D3F01D05E2B0050E56EBFEC22F0E6526D
:1025E0000B6A0A6E086A0850041205120A50061295
:1025F0000B5007125DC300F05EC301F003015D3FA5
:1026000001D05E2B0050E56EBFEC22F0E652036E67
:10261000006A03C001F0E86A03BEFF0E086E096E8F
:1026200000500412015005120850061209500712FA
:102630005DC300F05EC301F003015D3F01D05E2B7E
:102640000050E56EBFEC22F0E652016A0412015020
:1026500005120612071207C0E9FF06C0F4FF05C005
:10266000F3FF0450E4CF0BF0E4CF0AF0E4CF09F01D
:10267000E4CF08F0E4CF07F0E4CF06F0E4CF05F0B4
:10268000E4CF04F0E4CF03F0E4CF01F0E4CF00F0B6
:102690001200D9CFE5FFE1CFD9FF00C0E5FF01C0AF
:1026A000E5FF02C0E5FF03C0E5FF04C0E5FF05C08C
:1026B000E5FF06C0E5FF07C0E5FF020EDBCF00F037
:1026C000030EDBCF01F0040EDBCF02F0050EDBCFF3
:1026D00003F002C006F00650046E800A33E100C029
:1026E000E9FF01C0F3FF025059EC21F0056EF3CF72
:1026F00006F0F4CF07F003C0E5FF05C0E9FF06C010
:10270000F3FF075024EC23F000C0E9FF01C0F3FF02
:10271000025059EC21F0056EF3CF06F0F4CF07F02C
:10272000052A02E3064A072A05C0E5FF06C0F4FFB2
:1027300007C0F6FF00C0E9FF01C0F3FF0250B0EC94
:1027400022F020D004C000F000AA1CD0007A005073
:10275000046E04E1035061EC23F014D00450010A2C
:1027600004E1035002EC00F00DD004500F0A04E124
:10277000035026EC1FF006D004500E0A03E103506C
:1027800071EC23F0E4CF07F0E4CF06F0E4CF05F0DE
:10279000E4CF04F0E4CF03F0E4CF02F0E4CF01F0A3
:1027A000E4CF00F0E4CFD9FF1200D9CFE5FFE1CFAD
:1027B000D9FF00C0E5FF01C0E5FF02C0E5FF03C08F
:1027C000E5FF04C0E5FF05C0E5FF06C0E5FF07C063
:1027D000E5FF08C0E5FF09C0E5FF0AC0E5FF020EFE
:1027E000DBCF00F0030EDBCF01F0040EDBCF02F0F5
:1027F000050EDBCF03F0060EDBCF04F0070EDBCFB8
:1028000005F00038E8441F0B066E076A5F0E0626C7
:10281000030E072206C0E9FF07C0EAFFEFCF08F06A
:10282000070E0014096E010E0A6E095005E0E86CEF
:10283000D8900A36010FFDE30A50081206C0E9FFDE
:1028400007C0EAFF08C0EFFF230E0024066E076AE8
:102850000F0E072206C0E9FF07C0EAFF01C0EFFF25
:10286000016A230E0026040E0122800E025E070E6E
:1028700002160238F00B036E070E051605500326EC
:1028800000C0E9FF01C0EAFF03C0EFFFE4CF0AF098
:10289000E4CF09F0E4CF08F0E4CF07F0E4CF06F08E
:1028A000E4CF05F0E4CF04F0E4CF03F0E4CF02F08E
:1028B000E4CF01F0E4CF00F0E4CFD9FF120000C074
:1028C000E5FF01C0E5FF02C0E5FF03C0E5FFACA2E4
:1028D00076D0E2EC20F0006E005005E10401406B80
:1028E00004013F6B6CD040C401F000500126E2ECC3
:1028F00020F0026E00060250230A1FE1010E005C68
:10290000D8A05BD0E2EC20F0026E690A03E157EC3C
:102910001FF053D00250720A03E1CDEC22F04DD0EB
:102920000250730A01E049D09490AB869D8A9D982D
:10293000AE50AE50AB98AB8840D00250430A05E091
:102940000250420A01E039D001D0008E00C06DF380
:1029500000500401006F010E03016E6F040140512D
:10296000011814E0E2EC20F0026E03016D27000E66
:1029700003016E25006E036A040E032200C0E9FF06
:1029800003C0EAFF02C0EFFF6E2BE8D7000E030181
:102990006E25006E026A040E022203016D1D036E95
:1029A000032A00C0E9FF02C0EAFF03C0EFFF0301F2
:1029B0006E2B6EC36BF30301656B01C040F4E4CF73
:1029C00003F0E4CF02F0E4CF01F0E4CF00F0120016
:1029D000D9CFE5FFE1CFD9FF00C0E5FF01C0E5FF9A
:1029E00002C0E5FF03C0E5FF04C0E5FF05C0E5FF49
:1029F00006C0E5FF020EDBCF00F0030EDBCF01F0D7
:102A0000040EDBCF02F0050EDBCF03F003C004F0B1
:102A1000056A0350D8B44FD000C0E9FF01C0F3FFEE
:102A200002509FEC22F0066E430A03E1010E056E90
:102A3000038E0406002A02E3014A022A9D9AAB98FB
:102A400094809D989EA8FED7AC80AD6A00009EA899
:102A5000FED7AC9003C0ADFF00009EA8FED7055086
:102A600004E0420EAD6E032604D0620EAD6E620E1F
:102A70000326045015E000009EA8FED700C0E9FF21
:102A800001C0F3FF02509FEC22F0056E05C0ADFFC0
:102A9000055003260406002A02E3014A022AE9D768
:102AA00000009EA8FED7031CAD6EAD2A00009EA8B4
:102AB000FED7CDEC22F0E4CF06F0E4CF05F0E4CF72
:102AC00004F0E4CF03F0E4CF02F0E4CF01F0E4CF70
:102AD00000F0E4CFD9FF120000C0E5FF01C0E5FF20
:102AE00002C0E5FF03C0E5FF04C0E5FF006A5F0E1A
:102AF0000024016E026A030E022201C0E9FF02C037
:102B0000EAFFEF6A002A020E005CF1E3006A00505F
:102B1000020DF450026EF3CF01F0E00E0124036EBB
:102B2000000E0220046E03C0E9FF04C0EAFFEE6A53
:102B3000EF6A5B0E0124036E040E0220046E03C0D4
:102B4000E9FF04C0EAFFEE6AEF6A930E0124036E08
:102B5000040E0220046E03C0E9FF04C0EAFFEE6A1F
:102B6000EF6AB30E0124036E040E0220046E03C04C
:102B7000E9FF04C0EAFFEE6AEF6AD30E0126040EF5
:102B8000022201C0E9FF02C0EAFFEE687F0EEF6E8D
:102B9000230E0024016E026A040E022201C0E9FF26
:102BA00002C0EAFFEF68002A100E005CD8A0AFD781
:102BB000AF0EC06EC16A010EC26EC282E4CF04F0D5
:102BC000E4CF03F0E4CF02F0E4CF01F0E4CF00F073
:102BD00012004320412025642025640A0000D9CF3B
:102BE000E5FFE1CFD9FF00C0E5FF01C0E5FF02C06E
:102BF000E5FF03C0E5FF04C0E5FF05C0E5FF06C033
:102C0000E5FF07C0E5FF020EDBCF00F0030EDBCFD0
:102C100001F0040EDBCF02F0050EDBCF03F040C461
:102C200041F404013F510401415F410703C004F036
:102C3000056A030E0426D8B0052A41C406F0076AC7
:102C40000750800FF36E0550800FF35C02E10450D3
:102C5000065C02E2E8682BD0020E035C02E2E86A3E
:102C600026D003060350E56E41EC1EF0E652046ADE
:102C70000350045C14E204500024056EE86A01204D
:102C8000066EE86A022005C0E9FF06C0F3FF9FEC6C
:102C900022F0042AE56E41EC1EF0E652E9D740C46A
:102CA00041F404013F510401415F4107E86AE4CF68
:102CB00007F0E4CF06F0E4CF05F0E4CF04F0E4CF72
:102CC00003F0E4CF02F0E4CF01F0E4CF00F0E4CF72
:102CD000D9FF1200D9CFE5FFE1CFD9FF00C0E5FF52
:102CE00001C0E5FF02C0E5FF03C0E5FF04C0E5FF4A
:102CF00005C0E5FF020EDBCF00F0030EDBCF01F0D5
:102D0000040EDBCF02F00050020DF450036EF3CF3F
:102D100000F05B0E0024046E040E0320056E04C058
:102D2000E9FF05C0EAFF01C0EEFF02C0EFFF930E0E
:102D30000024046E040E0320056E04C0E9FF05C0E4
:102D4000EAFFEECF04F0EFCF05F00150045C016E16
:102D500002500558026E000E0026030E032200C02A
:102D6000E9FF03C0EAFF01C0EEFF02C0EFFFD88019
:102D700002AED89004E3021E016CD8B4022A0250BD
:102D8000800F800F02E1030E015C02E2016A026A19
:102D90000150021007E100C0E9FF03C0EAFF000E86
:102DA000EE6AEF6AE4CF05F0E4CF04F0E4CF03F07D
:102DB000E4CF02F0E4CF01F0E4CF00F0E4CFD9FF9C
:102DC0001200D9CFE5FFE1CFD9FF00C0E5FF01C078
:102DD000E5FF02C0E5FF03C0E5FF04C0E5FF05C055
:102DE000E5FF06C0E5FF020EDBCF00F0030EDBCFF0
:102DF00001F0040EDBCF02F0050EDBCF03F0D8802C
:102E000001AED890046A0436045007E0011C066E37
:102E1000001C056E054A062A04D000C005F001C05A
:102E200006F0D88003AED89007E3031C016E021CA5
:102E3000006E004A012A04D002C000F003C001F075
:102E40000150E56E0050E56E0650E56E0550E56EEA
:102E500015EC1AF0006EF3CF01F0040EE1260450D9
:102E60000AE0011C036E001C026E024A032A03C022
:102E7000F3FF025003D001C0F3FF0050E4CF06F08F
:102E8000E4CF05F0E4CF04F0E4CF03F0E4CF02F0A8
:102E9000E4CF01F0E4CF00F0E4CFD9FF1200D9CFA6
:102EA000E5FFE1CFD9FF00C0E5FF01C0E5FF02C0AB
:102EB000E5FF03C0E5FF04C0E5FF05C0E5FF020E26
:102EC000DBCF00F0030EDBCF01F0040EDBCF02F00E
:102ED000050EDBCF03F05DC304F05EC305F0030114
:102EE0005D3F01D05E2B0350E56E0450E56E9EEC15
:102EF00020F0E652E6525DC304F05EC305F0030124
:102F00005D3F01D05E2B0250056EE56E0450E56E0C
:102F10009EEC20F0E652E6525DC304F05EC305F07D
:102F200003015D3F01D05E2B0150056EE56E04503C
:102F3000E56E9EEC20F0E652E6525DC304F05EC3FF
:102F400005F003015D3F01D05E2B0050E56E04509B
:102F5000E56E9EEC20F0E652E652E4CF05F0E4CFB9
:102F600004F0E4CF03F0E4CF02F0E4CF01F0E4CFCB
:102F700000F0E4CFD9FF120000C0E5FF01C0E5FF7B
:102F800002C0E5FF03C0E5FF39C437F49BEC11F044
:102F900020EC09F05EEC10F088EC1FF0006EF3CF2F
:102FA00001F0F4CF02F0E9CF03F004013351005EE9
:102FB0003451015A3551025A3651035A039E3F0E7D
:102FC000035C08E1FF0E025C05E1FF0E015C02E11B
:102FD000FF0E005C33E288EC1FF0F3CF01F0F4CF7A
:102FE00002F0E9CF03F0880F0401336F130E0120C4
:102FF000346F000E0220356F000E0320366F9BECFD
:103000000EF0006E0050D8B4DAEC06F037C400F0D1
:103010003707005013E139C437F404013A2B3AC49E
:1030200000F0E56A0050E56E000EE56E0D0EE56EEF
:10303000A40EE56E85EC1DF0050EE126E4CF03F04D
:10304000E4CF02F0E4CF01F0E4CF00F01200D9CFDA
:10305000E5FFE1CFD9FF00C0E5FF01C0E5FF02C0F9
:10306000E5FF03C0E5FF04C0E5FF05C0E5FF06C0BE
:10307000E5FF020EDBCF00F0030EDBCF01F0040E04
:10308000DBCF02F004017F5119E1BCEC12F0036EBA
:10309000F3CF04F0F4CF05F0E9CF06F003C0E5FF6D
:1030A00004C0F4FF05C0F6FF06C0F7FF00C0E9FF4B
:1030B00001C0F3FF02508EEC22F01ED004017F51BC
:1030C000010A1AE100C0E9FF01C0F3FF0250C2EC9F
:1030D00020F0006EF3CF01F0F4CF02F0E9CF03F05F
:1030E0000350E56E0250E56E0150E56E0050E56E4E
:1030F0004FEC17F0040EE126E4CF06F0E4CF05F024
:10310000E4CF04F0E4CF03F0E4CF02F0E4CF01F029
:10311000E4CF00F0E4CFD9FF120000C0E5FF01C00A
:10312000E5FF02C0E5FFB2EC1FF0006E450A27E1A3
:10313000000EE56E0D0EE56EAE0EE56E85EC1DF033
:10314000030EE1266BEC23F0006E00C001F001C01D
:1031500002F0010602500FE0B2EC1FF0E56AE56EE6
:10316000000EE56E0D0EE56EB00EE56E85EC1DF001
:10317000050EE126ECD70A0E26EC1FF02BD00050EE
:10318000530A1BE1B2EC1FF0016ED00E0124006E59
:10319000D880E866D890016A01360150D880E86688
:1031A000D890016A01360150E56EAEEC1BF0E65294
:1031B000005010E12FEC23F00DD00050570A0AE127
:1031C000B2EC1FF0016ED00E0124006E0050D8B496
:1031D0002FEC23F0E4CF02F0E4CF01F0E4CF00F0D5
:1031E0001200D9CFE5FFE1CFD9FF00C0E5FF01C054
:1031F000E5FF02C0E5FF03C0E5FF04C0E5FF05C031
:10320000E5FF06C0E5FF020EDBCF00F0030EDBCFCB
:1032100001F00038E8441F0B026E036A5F0E0226BD
:10322000030E032202C0E9FF03C0EAFFEFCF04F060
:10323000070E0014056E010E066E055005E0E86CE1
:10324000D8900636010FFDE30650041202C0E9FFD4
:1032500003C0EAFF04C0EFFF230E0024026E036ADE
:103260000F0E032202C0E9FF03C0EAFF01C0EFFF17
:10327000016A230E0026040E012200C0E9FF01C0EE
:10328000EAFFFF0EEF68E4CF06F0E4CF05F0E4CFED
:1032900004F0E4CF03F0E4CF02F0E4CF01F0E4CF98
:1032A00000F0E4CFD9FF1200D9CFE5FFE1CFD9FF7D
:1032B00000C0E5FF01C0E5FF02C0E5FF03C0E5FF78
:1032C00004C0E5FF05C0E5FF06C0E5FF020EDBCF49
:1032D00000F0030EDBCF01F0040EDBCF02F0050E91
:1032E000DBCF03F0060EDBCF04F0070EDBCF05F0DB
:1032F000080EDBCF06F0D88003AED89015E3065059
:103300000A0A12E104C0E9FF05C0EAFF2D0EEF6EC4
:10331000044A052A031E021E011E006C05E1012A53
:1033200003E1022AD8B4032A0650E56E0550E56E83
:103330000450E56E0350E56E0250E56E0150E56EF7
:103340000050E56E82EC0FF0070EE126E4CF06F0A8
:10335000E4CF05F0E4CF04F0E4CF03F0E4CF02F0D3
:10336000E4CF01F0E4CF00F0E4CFD9FF1200D8CFD2
:10337000E5FFE0CFE5FFE56EF3CFE5FFF4CFE5FF36
:10338000E9CFE5FFEACFE5FFFACFE5FFFBCFE5FFA9
:10339000F6CFE5FFF6CFE5FFF7CFE5FFF8CFE5FF86
:1033A000F5CFE5FFE1CFE5FFE2CFE5FF04013D51B9
:1033B00004017D6F04013E5104017E6FD6507B6F86
:1033C000D7507C6FF2A411D004013D3F01D03E2BB9
:1033D000F29404013D5104017D6F04013E5104014A
:1033E0007E6FD6507B6FD7507C6FE4CFE2FFE4CF87
:1033F000E1FFE4CFF5FFE4CFF8FFE4CFF7FFE4CF40
:10340000F6FFE4CFF6FFE4CFFBFFE4CFFAFFE4CF13
:10341000EAFFE4CFE9FFE4CFF4FFE4CFF3FFE450A9
:10342000E4CFE0FFE4CFD8FF1000D9CFE5FFE1CF34
:10343000D9FF00C0E5FF01C0E5FF02C0E5FF03C002
:10344000E5FF04C0E5FF05C0E5FF06C0E5FF020E8D
:10345000DBCF00F0030EDBCF01F0040EDBCF02F078
:10346000050EDBCF03F0046A056A0350800BE844C5
:10347000066E065011E10250022603360350015C2D
:1034800002E10250005C04E2D8900332023204D020
:10349000052A05C004F0E9D70350015C02E102509F
:1034A000005C04E30250005E0350015AD8900332DE
:1034B000023204C005F004060550EEE101C0F3FF3E
:1034C0000050E4CF06F0E4CF05F0E4CF04F0E4CF01
:1034D00003F0E4CF02F0E4CF01F0E4CF00F0E4CF5A
:1034E000D9FF120000C0E5FF01C0E5FF02C0E5FF03
:1034F00003C0E5FF6AC300F0016A75C302F0036A06
:103500000250005E0350015AE56A800EE56E0150DC
:10351000E56E0050E56EE1EC16F0006E040EE1265B
:10352000000675C301F0430E26EC1FF0200E26ECBA
:103530001FF0005020E0600E0124026E036A000EAE
:10354000032202C0E9FF03C0EAFFEFCF02F0E56A01
:103550000250E56E000EE56E450EE56EB20EE56EAC
:1035600085EC1DF0050EE126012A0150800A01E1DB
:10357000016A0006DED7E4CF03F0E4CF02F0E4CF27
:1035800001F0E4CF00F01200D9CFE5FFE1CFD9FF81
:1035900000C0E5FF01C0E5FF02C0E5FF03C0E5FF95
:1035A00004C0E5FF020EDBCF00F0030EDBCF01F01D
:1035B000040EDBCF02F004017F5111E1F2EC1EF0AA
:1035C000036EF3CF04F003C0E5FF04C0F4FF00C0B6
:1035D000E9FF01C0F3FF0250F6EC22F016D004011F
:1035E0007F51010A12E100C0E9FF01C0F3FF025060
:1035F00018EC22F0006EF3CF01F00150E56E0050A0
:10360000E56E04EC1EF0E652E652E4CF04F0E4CF9F
:1036100003F0E4CF02F0E4CF01F0E4CF00F0E4CF18
:10362000D9FF1200D9CFE5FFE1CFD9FF00C0E5FFF8
:1036300001C0E5FF02C0E5FF03C0E5FF04C0E5FFF0
:10364000020EDBCF00F00038E8441F0B016E026A67
:10365000630E0126030E022201C0E9FF02C0EAFF49
:10366000EFCF01F0070E0016010E026E000E036E82
:10367000005006E0E86CD89002360336010FFCE3F8
:10368000046A015002160450031602500310D88039
:10369000E866D890026A02360250D880E866D89070
:1036A000026A02360250E4CF04F0E4CF03F0E4CF24
:1036B00002F0E4CF01F0E4CF00F0E4CFD9FF120034
:1036C000AA0EF66E460EF76E000EF86E0900F55063
:1036D000056E0900F550066E04E1056702D0ADEFF6
:1036E0001BF00900F550006E0900F550016E09004D
:1036F000F550026E09000900F550E96E0900F55019
:10370000EA6E090009000900F550036E0900F55042
:10371000046E09000900F6CF07F0F7CF08F0F8CFE4
:1037200009F000C0F6FF01C0F7FF02C0F8FF035028
:1037300002E1045007E00900F550EE6E0306F8E2DE
:103740000406F9D707C0F6FF08C0F7FF09C0F8FF65
:10375000050601E206066CEF1BF01200D9CFE5FF6B
:10376000E1CFD9FF00C0E5FF01C0E5FF02C0E5FFE2
:1037700003C0E5FF04C0E5FF05C0E5FF020EDBCF97
:1037800000F00050010A22E1016A0150020DF450DC
:10379000036EF3CF02F0B30E0224046E040E032076
:1037A000056E04C0E9FF05C0EAFFEE687F0EEF6E0C
:1037B000D30E0226040E032202C0E9FF03C0EAFF73
:1037C000EE6AEF6A012A100E015CDFE300C045F4E7
:1037D000E4CF05F0E4CF04F0E4CF03F0E4CF02F04F
:1037E000E4CF01F0E4CF00F0E4CFD9FF120000C035
:1037F000E5FF01C0E5FF02C0E5FF03C0E5FF04C02F
:10380000E5FF006A610E0024016E026A030E0222C7
:10381000630E0024036E046A030E042203C0E9FF52
:1038200004C0EAFF010EEF6E01C0E9FF02C0EAFF2B
:10383000EF6E002A020E005CE5E3006A400E0024F1
:10384000016E026A030E022201C0E9FF02C0EAFF14
:10385000EF68002A100E005CF1E3E4CF04F0E4CF3F
:1038600003F0E4CF02F0E4CF01F0E4CF00F0120067
:103870004320732025642025640A0000D9CFE5FF8A
:10388000E1CFD9FF00C0E5FF01C0E5FF02C0E5FFC1
:1038900003C0E5FF04C0E5FF05C0E5FF020EDBCF76
:1038A00000F0030EDBCF01F0040EDBCF02F0050EBB
:1038B000DBCF03F0060EDBCF04F0056A400E0026D6
:1038C000030E0522800E015E070E01160138F00B73
:1038D000026E070E04160450022600C0E9FF05C060
:1038E000EAFF02C0EFFFE4CF05F0E4CF04F0E4CF3D
:1038F00003F0E4CF02F0E4CF01F0E4CF00F0E4CF36
:10390000D9FF120000C0E5FF01C0E5FF02C0E5FFDE
:10391000B2EC1FF0006EB2EC1FF0016E0050026EB0
:10392000D00E0224006E0A0E005C05E30050026E09
:10393000F90E0224006E0150026ED00E0224016EB8
:103940000A0E015C05E30150026EF90E0224016EBD
:10395000080E005C12E2100E015CD8B00ED00038E8
:10396000F00B0124006EB8EC1EF0016E015005E171
:103970000050E56E8EEC21F0E652E4CF02F0E4CF89
:1039800001F0E4CF00F01200D8CFE5FFE0CFE5FF73
:10399000E56EF3CFE5FFF4CFE5FFE9CFE5FFEACF32
:1039A000E5FFFACFE5FFFBCFE5FFF6CFE5FFF6CF6A
:1039B000E5FFF7CFE5FFF8CFE5FFF5CFE5FFE1CF76
:1039C000E5FFE2CFE5FF97EC0DF0E4CFE2FFE4CFB7
:1039D000E1FFE4CFF5FFE4CFF8FFE4CFF7FFE4CF5A
:1039E000F6FFE4CFF6FFE4CFFBFFE4CFFAFFE4CF2E
:1039F000EAFFE4CFE9FFE4CFF4FFE4CFF3FFE450C4
:103A0000E4CFE0FFE4CFD8FF100000C0E5FF01C025
:103A1000E5FFB2EC1FF0006E010E005C31E3040E16
:103A2000005C2EE20006FA6AFB6A0034FA36E834DB
:103A3000FA36FC0B440FE56E3A0EFA22000EFB221A
:103A4000E450F96E28EF1DF02DEF1DF032EF1DF060
:103A5000B2EC1FF004013A6F13D0B2EC1FF0040176
:103A6000396F0ED0B2EC1FF004013C6F3B6BB2EC2F
:103A70001FF0016A04013B2701503C230EEC04F0C7
:103A8000E4CF01F0E4CF00F01200D9CFE5FFE1CFA1
:103A9000D9FF00C0E5FF01C0E5FF02C0E5FF03C09C
:103AA000E5FF04C0E5FF020EDBCF00F00038E8447C
:103AB0001F0B016E026A5F0E0126030E022201C077
:103AC000E9FF02C0EAFFEFCF03F0070E0016010E78
:103AD000046E005005E0E86CD8900436010FFDE359
:103AE000041C031601C0E9FF02C0EAFF03C0EFFF98
:103AF000E4CF04F0E4CF03F0E4CF02F0E4CF01F030
:103B0000E4CF00F0E4CFD9FF1200D9CFE5FFE1CF39
:103B1000D9FF00C0E5FF01C0E5FF02C0E5FF020ECE
:103B2000D924006E000EDA20016E800E026E030EA4
:103B30000026000E012202220250E56E0150E56EC1
:103B40000050E56E040EDBCFE5FF030EDBCFE5FF93
:103B5000020EDBCFE5FF03015651E56E5551E56ED0
:103B60005451E56E0EEC00F0006EF3CF01F0090E3B
:103B7000E12601C0F3FF0050E4CF02F0E4CF01F0F2
:103B8000E4CF00F0E4CFD9FF1200D9CFE5FFE1CFB9
:103B9000D9FF00C0E5FF01C0E5FF02C0E5FF03C09B
:103BA000E5FF020EDBCF00F0030EDBCF01F0040EC9
:103BB000DBCF02F004017F510DE1ECEC21F0036E4C
:103BC00003C0E5FF00C0E9FF01C0F3FF025024EC91
:103BD00023F00FD004017F51010A0BE100C0E9FF7F
:103BE00001C0F3FF02509FEC22F0E56E78EC20F06C
:103BF000E652E4CF03F0E4CF02F0E4CF01F0E4CFEB
:103C000000F0E4CFD9FF1200D9CFE5FFE1CFD9FF13
:103C100000C0E5FF01C0E5FF02C0E5FF03C0E5FF0E
:103C2000020EDBCF00F0030EDBCF01F05DC302F02C
:103C30005EC303F003015D3F01D05E2B0150E56ED2
:103C40000250E56E9EEC20F0E652E6525DC302F0B3
:103C50005EC303F003015D3F01D05E2B0050E56EB3
:103C60000250E56E9EEC20F0E652E652E4CF03F0FF
:103C7000E4CF02F0E4CF01F0E4CF00F0E4CFD9FFCD
:103C80001200D9CFE5FFE1CFD9FF00C0E5FF01C0A9
:103C9000E5FF02C0E5FF03C0E5FF04C0E5FF020E3B
:103CA000DBCF00F03FC401F0026A014A022A40C49F
:103CB00003F0046A0150031803E10250041801E004
:103CC00001D00ED0000E04013F25016E026A010EE4
:103CD000022201C0E9FF02C0EAFF00C0EFFF3F2B54
:103CE000E4CF04F0E4CF03F0E4CF02F0E4CF01F03E
:103CF000E4CF00F0E4CFD9FF1200D9CFE5FFE1CF48
:103D0000D9FF00C0E5FF01C0E5FF02C0E5FF03C029
:103D1000E5FF020EDBCF00F0016A75C302F0036A13
:103D20000250002603500122E56A800EE56E015024
:103D3000E56E0050E56EE1EC16F0006EF3CF01F099
:103D4000040EE126600E0026000E012200C0E9FFED
:103D500001C0EAFFEFCF00F00050E4CF03F0E4CF62
:103D600002F0E4CF01F0E4CF00F0E4CFD9FF12007D
:103D700000C0E5FF01C0E5FF02C0E5FF010E006ED7
:103D8000B2EC1FF0016E01C002F0015023E00050C0
:103D9000E56EBFEC22F0016EE652015010E10A0E12
:103DA000005C0BE20A0E006EE56EBFEC22F0016EC5
:103DB000E652015004E1E8680ED0E8680CD00150EA
:103DC000021802E0E86807D0002A1B0E005CD8E366
:103DD000E86801D0E86AE4CF02F0E4CF01F0E4CF74
:103DE00000F0120000C0E5FF01C0E5FF02C0E5FFE2
:103DF00003C0E5FF5DC300F05EC301F003015D3F5A
:103E000001D05E2B0050E56EBFEC22F0E652036E4F
:103E1000026A5DC300F05EC301F003015D3F01D0A3
:103E20005E2B0050E56EBFEC22F0E652016A0212F2
:103E30000150031203C0F3FF0250E4CF03F0E4CFBC
:103E400002F0E4CF01F0E4CF00F0120000C0E5FF83
:103E500001C0E5FF02C0E5FF006E000E040144252D
:103E6000016E026A0F0E022201C0E9FF02C0EAFFE2
:103E700000C0EFFF220E445D01E2442B00500A0A0D
:103E80000FE104014451E56E800EE56E0F0EE56E04
:103E9000000EE56EEFEC15F0040EE1260401446B14
:103EA000E4CF02F0E4CF01F0E4CF00F0120004010F
:103EB0003F6B0401406B0401416994908B909480A6
:103EC000B06A3F0EAF6EB886AC8AAC84AC8CAC9056
:103ED000AB8CAB8E03016C6B0301666B0301696BEA
:103EE00003016A6B03016B6B000EE56ABFEC22F005
:103EF0000401436FE6529F989F9A010E0401426F9E
:103F00000301546B556B2F0E566FCDEC22F012004F
:103F100004013D510F01356F04013E510F01366F11
:103F2000D650336FD750346F355104013D1905E138
:103F30000F01365104013E190CE004013D510F01FF
:103F4000356F04013E510F01366FD650336FD75095
:103F5000346F36CFE9FF35CFF4FF34CFF3FF0F01D5
:103F60003351120000C0E5FF01C0E5FF03016A51B3
:103F70000301731905E003016A510301691902E1A4
:103F8000E86A15D06AC300F003016A2B016A600E6B
:103F90000026000E012200C0E9FF01C0EAFFEFCFBA
:103FA00000F06A51800A02E103016A6B0050E4CF1D
:103FB00001F0E4CF00F0120001C0E5FF02C0E5FF10
:103FC00003C0E5FF5CEC23F043EC23F00EEC04F0BF
:103FD00088EC1FF0F3CF01F0F4CF02F0E9CF03F04B
:103FE000880F0401336F130E0120346F000E02207E
:103FF000356F000E0320366FE4CF03F0E4CF02F0FC
:10400000E4CF01F0120000C0E5FF65EC23F00401ED
:10401000896B806B8983006A89B3002A0050010B89
:10402000E844F46E8051FD0BF410806FD58ED59C62
:10403000D59AD588D596D594D582D580F28AF18443
:10404000D08EF28EF28CBA80FF0EBB68BA84E4CFB9
:1040500000F01200D9CFE5FFE1CFD9FF00C0E5FFA6
:1040600001C0E5FF020EDBCF00F00050020DF4505E
:10407000016EF3CF00F0000E0026030E012200C0F7
:10408000E9FF01C0EAFFEECF00F0EFCF01F001C081
:10409000F3FF0050E4CF01F0E4CF00F0E4CFD9FF0C
:1040A0001200D9CFE5FFE1CFD9FF00C0E5FF01C085
:1040B000E5FF020EDBCF00F00050020DF450016E60
:1040C000F3CF00F0E00E0026000E012200C0E9FF51
:1040D00001C0EAFFEECF00F0EFCF01F001C0F3FF27
:1040E0000050E4CF01F0E4CF00F0E4CFD9FF12009C
:1040F000D9CFE5FFE1CFD9FF00C0E5FF01C0E5FF63
:1041000002C0E5FF020EDBCF00F05DC301F05EC32D
:1041100002F003015D3F01D05E2B0050E56E0150BF
:10412000E56E9EEC20F0E652E652E4CF02F0E4CFDA
:1041300001F0E4CF00F0E4CFD9FF1200D9CFE5FFC2
:10414000E1CFD9FF00C0E5FF020EDBCF00F0030E88
:10415000DBCFA8FF00C0A9FFA69EA69CA684F29E66
:10416000F29C550EA76EAA0EA76EA682A6A202D03A
:104170000000FCD7A694F28EF28CE4CF00F0E4CFDE
:10418000D9FF1200E8AE0AD0F3CFEAFFEE50EECF2F
:10419000F3FFEECFF4FFEECFE9FF1200E8BC78EFBB
:1041A00023F0E9CFF6FFF3CFF7FFF86E0900F550E3
:1041B0000900F5CFF3FF0900F5CFF4FF0900F5CFB3
:1041C000E9FF120000C0E5FF01C0E5FF04013F5117
:1041D0000401401902E1E86A0FD0000E04014025F5
:1041E000006E016A010E012200C0E9FF01C0EAFF72
:1041F000EFCF00F0402B0050E4CF01F0E4CF00F00F
:104200001200F2CFEAFFF29EA69EA69CA684E9CFFA
:10421000A9FFF3CFAAFFE4CFA8FF4CEC23F0F4CF23
:10422000A8FF4CEC23F0F6CFA8FF4CEC23F0F7CF1F
:10423000A8FF4CEC23F0A694EABEF28E1200D9CF70
:10424000E5FFE1CFD9FF00C0E5FF01C0E5FF020EA9
:10425000DBCF00F0016A400E0026030E012200C0F1
:10426000E9FF01C0EAFFFF0EEF68E4CF01F0E4CF01
:1042700000F0E4CFD9FF1200F2CFF6FFF29EA69E27
:10428000A69CE9CFA9FFF3CFAAFFA680A850A94A10
:10429000AA2AA680A8CFF3FFA94AAA2AA680A8CF57
:1042A000F4FFA94AAA2AA680A8CFEAFFF6BEF28E9A
:1042B0001200E8AE08D0F3CFEAFFEE50EECFF3FFE6
:1042C000EECFF4FF1200E8BC80EF23F0E9CFF6FF59
:1042D000F3CFF7FFF86E0900F5500900F5CFF3FFB3
:1042E0000900F5CFF4FF1200F2CFEAFFF29EA69E7E
:1042F000A69CA684E9CFA9FFF3CFAAFFE4CFA8FF2D
:104300004CEC23F0F4CFA8FF4CEC23F0F6CFA8FF41
:104310004CEC23F0A694EABEF28E1200D9CFE5FF52
:10432000E1CFD9FF00C0E5FF020EDBCF00F000C0F7
:1043300043F40050E56E000EE56A9EEC20F0E65274
:10434000E652E4CF00F0E4CFD9FF1200F2CFF6FF3F
:10435000F29EA69EA69CE9CFA9FFF3CFAAFFA68056
:10436000A850A94AAA2AA680A8CFF3FFA94AAA2A38
:10437000A680A8CFF4FFF6BEF28E120000C0E5FFC3
:1043800001C0E5FF600E03016A25006E016A000EA0
:10439000012200C0E9FF01C0EAFFEFCF00F00050AA
:1043A000E4CF01F0E4CF00F01200D9CFE5FFE1CF78
:1043B000D9FF00C0E5FF020EDBCF00F0610E005C0C
:1043C00005E37B0E005C02E2010E01D0E86AE4CF57
:1043D00000F0E4CFD9FF120000C0E5FF01C0E5FF07
:1043E0005DC300F05EC301F003015D3F01D05E2BB1
:1043F0000050E56EBFEC22F0E652E4CF01F0E4CFCE
:1044000000F01200D9CFE5FFE1CFD9FF00C0E5FFF2
:10441000020EDBCF00F000C042F4005004E1CDEC0E
:1044200022F09D9A9D98E4CF00F0E4CFD9FF1200CE
:10443000E8AE06D0F3CFEAFFEE50EECFF3FF120066
:10444000E8BC76EF23F0E9CFF6FFF3CFF7FFF86E85
:104450000900F5500900F5CFF3FF1200F2CFEAFF93
:10446000F29EA69EA69CA684E9CFA9FFF3CFAAFF41
:10447000E4CFA8FF4CEC23F0F4CFA8FF4CEC23F0E2
:10448000A694EABEF28E120012EEFFF022EEFFF0CA
:10449000F86AA68EA69CE9680E0EEA6E0068000E09
:1044A000ED6A0050FDE160EC1BF006EC00F0FFD778
:1044B000F2CFF6FFF29EA69EA69CE9CFA9FFF3CF0E
:1044C000AAFFA680A850A94AAA2AA680A8CFF3FFCF
:1044D000F6BEF28E1200F2CFEAFFF29EA69EA69CD6
:1044E000A684E9CFA9FFF3CFAAFFE4CFA8FF4CEC45
:1044F00023F0A694EABEF28E1200FF000000000036
:104500000000FF0000000050000200000042000018
:10451000000000000000000000000000E8AE0BD02A
:10452000F3CFEAFFE4CFEEFFF4CFEEFFF6CFEEFFDE
:10453000F7CFEEFF1200E8BC7AEF23F01200E8AEEE
:1045400004D0F3CFEAFFEE501200E8BC74EF23F082
:10455000E9CFF6FFF3CFF7FFF86E0900F550120030
:10456000E8AE09D0F3CFEAFFE4CFEEFFF4CFEEFFE1
:10457000F6CFEEFF1200E8BC82EF23F01200D9CF95
:10458000E5FFE1CFD9FF020EDBCFA9FFA69CA69ED7
:10459000A680A850E4CFD9FF1200ACA2FED7949019
:1045A000AE500000AE50AB98AB88AB869D8A9D980C
:1045B000120025642000F2CFF6FFF29EA69EA69C74
:1045C000E9CFA9FFF3CFAAFFA680A850F6BEF28ECE
:1045D00012004CEC0BF0800EE56E040EE56E3B0E07
:1045E000E56EC4EC1AF0030EE1261200E8AE07D027
:1045F000F3CFEAFFE4CFEEFFF4CFEEFF1200E8BC0A
:104600007EEF23F01200700ED36E9B8CFF0E92682B
:10461000936894689668626AF19E120000C0E5FF94
:10462000B8EC1EF0006E005001E1FF00E4CF00F096
:1046300012000F01456B900E0F01446F030E0F0126
:10464000436F0F01458F1200E8AE05D0F3CFEAFFAC
:10465000E4CFEEFF1200E8BC7CEF23F01200010E65
:1046600004017F6F1C0E03015D6F5E6BE9EC22F0AD
:104670001200D9CFE5FFE1CFD9FF020EDBCF48F41E
:10468000E4CFD9FF120004017F6B1C0E03015D6FA4
:104690005E6BE9EC22F01200550EA76EAA0EA76E13
:1046A000A682A6B2FED7A94AAA2A0100FA440000AF
:1046B000390400002200000003EC20F057EC1FF04A
:1046C0001200ACA2FED7AD6E120003EC23F0120074
:1046D00003016A5112000301745112000401425196
:1046E0001200E8CF7FFF1200DBEF22F058EF22F03C
:1046F0003CEF21F001EF21F06BEF22F02EEF22F0E2
:08470000A6EF21F074EF21F097
:020000040030CA
:010006008574
:00000001FF
